:020000040040BA
:10000000E041002085074000810740008107400053
:100010008107400081074000810740000000000088
:100020000000000000000000000000008107400008
:100030008107400000000000810740008107400068
:100040008107400081074000810740008107400090
:100050008107400081074000810740000000000048
:100060008107400081074000000000008107400038
:100070008107400000000000810740008107400028
:1000800000000000000000008107400081074000E0
:100090008107400081074000810740008107400040
:1000A00081074000810740000000000000000000C0
:1000B00000000000810740008107400081074000E8
:1000C0008107400081074000810740000348044B3E
:1000D000834202D0034B03B11847704760104000C1
:1000E00060104000000000000548064B1B1AD90FA5
:1000F00001EBA301491002D0034B03B1184770472D
:1001000060104000601040000000000010B5064C78
:10011000237843B9FFF7DAFF044B13B10448AFF378
:1001200000800123237010BD0800002000000000A3
:100130006010400008B5044B1BB104490448AFF3FC
:100140000080BDE80840CFE7000000000C00002060
:1001500060104000012A01BF1B78044A03F00F031E
:1001600000200CBF13700420704700BF54300020E3
:10017000014B0020186070472800002007B50D4B88
:10018000984700230C4A0193019B93420ED90B4BD5
:10019000984799238DF803300DF10302084B012194
:1001A00072209847002003B05DF804FB019B0133E7
:1001B0000193E9E7950940003F0D030075094000F0
:1001C000A505400008B5034A034B0121722098475A
:1001D000002008BD54300020A50540000D4B0E48FE
:1001E00070B5002440F608461C600C4B0C4D1C609A
:1001F00032462146A847324621460A48A847324699
:1002000021460948A847324621460848A8472046C3
:1002100070BD00BF5030002048240020280000207E
:10022000610E400040180020380C002030000020F3
:10023000F8B50D4F3C6815461E462CB90B480C4BC3
:1002400040F608422146984708480A4B2A4631465C
:10025000204498472C4440F607439C4288BF002422
:100260003C600020F8BD00BF503000204824002032
:10027000610E4000050F4000F8B50D4F3C68154673
:100280001E462CB90B480C4B40F6084221469847B5
:1002900008480A4B2A463146204498472C4440F6E9
:1002A00007439C4288BF00243C600020F8BD00BF8B
:1002B0002400002040180020610E4000050F40007F
:1002C0002DE9F04F4149424B4248424E85B040F63D
:1002D00008429847404B9847404BDFF804C11A78D2
:1002E00002EB422202EB824202F0F031CB0883EAB9
:1002F00011135340C3F303220092C3F3036EC3F3FD
:100300000342DBB201920027029306F12002A6F11C
:100310000805ACF10808039258F8082F029BD8F89A
:10032000044055F8080F02F0113904F01131A9FB0F
:1003300003A903FB01996968009B89EA01098AEA1C
:10034000000A009950084FEA540B00F01130A0FB4E
:1003500001100BF0113B03FB0B008AEA010A019B21
:1003600091084FEA940B01F0113189EA00000BF07B
:10037000113BA1FB0319D20803FB0B99E40802F01F
:10038000113280EA0909039BA2FB0E2004F011340C
:100390008AEA01010EFB0400514089EA0000AB42E9
:1003A000C5E90010B8D101374D2F06F128060CF130
:1003B000280CAAD10B4B98470649054B0A4840F632
:1003C00008429847002005B0BDE8F08F4018002093
:1003D000050F4000300000209509400054300020F7
:1003E0004824002075094000380C002038B5BAB107
:1003F0000C4D1C782A68C2F540630833A34238BF0D
:10040000DCB2094B21461A447220084B98472B68EE
:100410001C4440F607439C428ABF00232C602B609B
:10042000002038BD28000020380C0020A505400021
:1004300008B5184B184C9847184B9847184B9847D5
:10044000184B9847184A00217420A047174A0021EA
:100450006F20A047164A00217320A047154A0021AB
:100460006820A047144A00216320A047134A0021B6
:100470006920A047124A00216120A047114A0021AB
:100480006720A047104A00217A20A0470F4CA047C0
:10049000FDE700BF190840003D054000B1084000DD
:1004A000550940007D0540007D0140005501400098
:1004B000DD014000C50140003102400079024000EA
:1004C000C1024000ED034000710140007106400090
:1004D00010B50246014400208A4200D110BD12F836
:1004E000013B0824584043B2002BBABF5B0083F0A5
:1004F0004D034300013CD8B2F5D1EDE730B5002201
:10050000044601238B4201D3002030BD14F8015F63
:1005100015B99D1A85541A460133DBB2F2E730B59E
:1005200004780025024605702046884200D204B9AE
:1005300030BD145C15540319D8B2F6E7F8B50C4D6C
:100540002B681F2B04DD61200A4B98470120F8BD62
:10055000F82901D96220F7E7074F0C245C433E19C4
:1005600001333855C6E901122B600020EFE700BFC8
:10057000D8310020150940005830002010B5064C35
:10058000064A00217620A0472346054ABDE81040D0
:1005900000217720184700BF3D0540000D064000B0
:1005A0002D064000F0B50C46C1B0114622B32246DC
:1005B000124B8DF8010000250DF103008DF802406B
:1005C0008DF800509847A11C0D4B0E4FC9B20DF18C
:1005D000010098470DEB0403261D611DD870C9B2B8
:1005E000094B0DF80650684698476C4614F8010B05
:1005F0000135B847AE42F9DA41B0F0BD050F400011
:10060000D104400015094000FD04400007B5032354
:100610008DF807300DF10702034B01217220984736
:10062000002003B05DF804FBA505400030B50D4B7C
:100630000D48197889B000220C24D3B28B4202F104
:10064000010206DB094B6A4672209847002009B078
:1006500030BD03F1200563436D44C35C05F8203CC5
:10066000EBE700BFD831002058300020A50540003E
:100670002DE9F047C0B0002401ADDFF8ECA08DF803
:100680000340A846D04705F8010B58B905208DF85E
:100690000300364B0DF1030201216520984740B05D
:1006A000BDE8F0870134042CECD12146DFF8C0907E
:1006B0004046C8472F4B9DF805101A6806462E483D
:1006C00000230C25DFB2974202DB08D10120DEE7D0
:1006D00005FB07FC013310F80CC08C45F2D19DF8E6
:1006E00007300533B34202DA0420D0E72C46D04766
:1006F00008F804000028C9D09DF80730651C0433B1
:10070000AB42F3DAD04705F580736B4403F8FC0C79
:100710000028E9D1C6F1010353FA85F1C9B25FFAA5
:1007200085FA08EB0600C847AAF10201134BC9B2CB
:100730000DF10500984704F580730DEB030414F8E0
:10074000FC3C83420DD10C4B9DF806109DF8050032
:100750000C2202FB07339DF807209C6802ABA047E0
:1007600095E7022093E700BF31094000A50540004E
:100770001F054000D831002058300020D10440002F
:10078000FEE7000019491A48814210B520D9194BDB
:10079000DA1C121A22F00302C41E9C4288BF0022F7
:1007A000154B984700BF154B1548DA1C121AC11E8D
:1007B00022F00302994288BF0022124B0021984781
:1007C000114B124A9A60124B9847124B9847FEE71A
:1007D000E8D2084B0A1F181A1044C1F10401C8429C
:1007E000E0D050F8042943F8042DF8E760104000E9
:1007F0000000002004000020050F4000DC31002034
:1008000008000020610E400000ED00E00000400004
:10081000110E400031044000184B4FF4004270B5F7
:1008200000205A65164C174D174EA0470120A047CF
:100830000520A047154B002098471548A847154BA1
:1008400000209847144B3E2101209847B0470028CC
:10085000FCD0124B00209847114B98471148A847ED
:10086000114A136823F0806313600B20A047BDE892
:1008700070400E4B4FF060510F20184700140E408F
:10088000B90D4000750C4000A90D4000F50D400069
:10089000000E2707D90C40005D0D4000190D4000E7
:1008A000A90B400010757000000A0E40050B4000B7
:1008B0001FB5104B104C4FF46132CDE901324FF4AB
:1008C0000063039308200D4B984701A90C4B204669
:1008D000984720460B4B98470B4B204698470B4CAC
:1008E0000B490920A0474FF000610A20A04704B03F
:1008F00010BD00BF90AD710000060E40B90D400064
:10090000B5094000EF094000E9094000050B40002F
:100910000100000870B5044E044D044621463046DF
:10092000A8470028FAD170BD00060E40F509400026
:1009300037B5064D064C0DF107012846A0470028A3
:10094000F9D19DF8070003B030BD00BF00060E408E
:10095000030A400010B5054B0B209847BDE8104036
:10096000034B4FF040510720184700BFB90D40001E
:10097000050B400010B5054B07209847BDE8104017
:10098000034B4FF040510720184700BFEB0A4000CF
:10099000050B400010B5054B07209847BDE81040F7
:1009A000034B4FF060510720184700BFD30A4000A7
:1009B000050B4000AC2310B50360D1E90032B3FB56
:1009C000F2F31B095C1E4FF6FE7294420AD80362D2
:1009D0008B68436040F20223C0F82031502303604B
:1009E000002010BD0120FCE7402303607047102366
:1009F0000360704743699B0746BFC1610020012027
:100A000070474369DB0743BF83690B7000200120F7
:100A10007047B1F1C05F426426D007D8B1F1006FD2
:100A200011D0B1F1805F1CD0C9B97047B1F1005F3E
:100A300023D014D3B1F1405F12D021F08051B1F135
:100A4000205F0CD17047016F036F0B4023EA020354
:100A50000367416F436F0B4023EA02034367426021
:100A60007047036F1343F3E7016F036F0B4023EAF3
:100A700002030367436F1343F0E7036F1343F8E781
:100A8000D30741644CBF4166016612F00A0F07D0DC
:100A90009307016208D4130748BFC0F8841000E030
:100AA0004162416101607047C0F88010F9E710B5FC
:100AB000029C41643CB141663BB101653AB10163BE
:100AC0000161016010BD0166F6E74165F6E741632B
:100AD000F6E7430903F5001303F207735B0200F026
:100AE0001F00012282401A637047430903F5001377
:100AF00003F207735B0200F01F00012282405A6379
:100B00007047000037B5044640090D4600F5001057
:100B100001F0F04100F20770B1F1005F4FEA4020B0
:100B20001FD00BD8B1F1805F1BD0B1F1C05F18D0DE
:100B3000B1F1006F15D0002003B030BD05F0E043E7
:100B4000B3F1405F17D0B1F1205FF4D104F01F047E
:100B50000121124B2A46A140984700E0026601207D
:100B6000EAE704F01F040122A2400D4B9847EC076E
:100B7000F4D54266F3E705F0605202F148414A427B
:100B800005F0010304F01F044A4101210093A14034
:100B9000C5F38003034CA047E1E700BF810A400092
:100BA000130A4000AF0A400010B52C4A2C4B116BC1
:100BB00001F0030101292AD0023901291DD8116A47
:100BC000CC0148D427491960116A01F0700110293D
:100BD0003ED020293FD0106B196800F00300022896
:100BE0000BBF946AD46A906AD06AC4F30A4404FBC7
:100BF0000111C0B2B1FBF0F107E01B49496A0806D8
:100C00004CBF4FF400414FF4FA4119600DE0116AF6
:100C1000C90101D51549F8E712491960116A01F0B7
:100C20007001102912D02029F4D0106B196800F03F
:100C3000700070281BBF126BC2F30212032221FA4C
:100C400002F208BFB1FBF2F21A6010BD0849DCE7FE
:100C500007491960BFE70549FBE700BF00040E40E4
:100C60000000002000093D0000140E40001BB700EA
:100C700000127A000E4B98420E4B03D84FF0806260
:100C80001A6070470C4A904201D20C4AF8E70C4AAD
:100C9000904201D20B4AF3E70B4A904201D80B4A2B
:100CA000EEE70B4A90428CBF0A4A4FF00422E7E776
:100CB000FF2C3101000A0E40005A620200010004BC
:100CC0000087930300020004FFB3C4040003000480
:100CD000FFE0F505000500040E4B1A6B22F003023D
:100CE0001A6340F60102996E09070BD51A6B22F0C0
:100CF00070021043186340F60102996E090705D58A
:100D000000207047013AEED101207047013AF4D13A
:100D1000FAE700BF00040E400F4B1A6B22F00302EB
:100D200042F001021A6340F60102996E09070BD5E1
:100D30001A6B22F070021043186340F60102996E9C
:100D4000090705D500207047013AEED10120704710
:100D5000013AF4D1FAE700BF00040E400F4A30B167
:100D6000136A0F4919400F4B0B4313627047106A07
:100D70000B0220F45C119BB221F003010B4343F4FE
:100D80005C1343F001031362936EDB07FCD5136A17
:100D900043F09B7343F48033E7E700BF00040E4049
:100DA000FCFFC8FE02003701024B986E00F4803051
:100DB000704700BF00040E40222816D81F280C4A96
:100DC0004FF0010307D89169834033EA010118BF4E
:100DD000136100207047D2F808112038834033EAAD
:100DE0000101F6D0C2F80031F3E70120704700BFDF
:100DF00000040E40034B18B1034AC3F8E4207047C7
:100E0000024AFAE700040E4001434D5000434D50A2
:100E100070B50F4B0F4DAB42A3EB050607D0B610D4
:100E2000002455F8043B01349847A642F9D800F055
:100E300003F9094D094B5E1BAB424FEAA60606D0EB
:100E4000002455F8043B01349847A642F9D870BDF8
:100E5000441040004410400044104000481040003E
:100E6000830730B547D0541E002A3ED0CAB203468D
:100E700001E0013C39D303F8012B9D07F9D1032C84
:100E80002CD9CDB205EB05250F2C05EB054535D941
:100E9000A4F1100222F00F0C03F1100EE6444FEA09
:100EA000121C1A46C2E90055C2E9025510327245B9
:100EB000F8D10CF1010214F00C0F03EB021204F054
:100EC0000F0C13D0ACF1040323F0030304331344D9
:100ED00042F8045B9342FBD10CF003042CB1C9B27D
:100EE0001C4403F8011BA342FBD130BD64461346EA
:100EF000002CF4D1F9E703461446C0E71A46A4468D
:100F0000E0E700BF844641EA000313F003036DD11C
:100F1000403A41D351F8043B40F8043B51F8043BBC
:100F200040F8043B51F8043B40F8043B51F8043BC3
:100F300040F8043B51F8043B40F8043B51F8043BB3
:100F400040F8043B51F8043B40F8043B51F8043BA3
:100F500040F8043B51F8043B40F8043B51F8043B93
:100F600040F8043B51F8043B40F8043B51F8043B83
:100F700040F8043B51F8043B40F8043B51F8043B73
:100F800040F8043B51F8043B40F8043B51F8043B63
:100F900040F8043B403ABDD2303211D351F8043B03
:100FA00040F8043B51F8043B40F8043B51F8043B43
:100FB00040F8043B51F8043B40F8043B103AEDD2B2
:100FC0000C3205D351F8043B40F8043B043AF9D203
:100FD000043208D0D2071CBF11F8013B00F8013BD6
:100FE00001D30B8803806046704700BF082A13D3E3
:100FF0008B078DD010F003038AD0C3F10403D21AFB
:10100000DB071CBF11F8013B00F8013B80D331F82E
:10101000023B20F8023B7BE7043AD9D3013A11F8AE
:10102000013B00F8013BF9D20B7803704B78437019
:101030008B78837060467047F8B500BFF8BC08BC79
:101040009E46704735014000F8B500BFF8BC08BCAB
:081050009E4670470D014000AF
:08105800ACFEFF7F0100000067
:0410600000093D0046
:04000005004007852B
:00000001FF
