:020000040800F2
:10000000000002201D16000865160008651600088D
:100010006516000865160008651600080000000057
:10002000000000000000000000000000651600084D
:100030006516000800000000651600086516000837
:1000400000000000000000000000000000000000B0
:1000500000000000000000000000000000000000A0
:100060000000000000000000000000000000000090
:100070000000000000000000000000000000000080
:100080000000000000000000000000000000000070
:100090000000000000000000000000000000000060
:1000A0000000000000000000000000000000000050
:1000B0000000000000000000000000000000000040
:1000C0000000000000000000000000000000000030
:1000D0000000000000000000000000000000000020
:1000E0000000000000000000000000000000000010
:1000F0000000000000000000000000000000000000
:1001000000000000000000000000000000000000EF
:1001100000000000000000000000000000000000DF
:1001200000000000000000000000000000000000CF
:1001300000000000000000000000000000000000BF
:1001400000000000000000000000000000000000AF
:10015000000000000000000000000000000000009F
:10016000000000000000000000000000000000008F
:10017000000000000000000000000000000000007F
:08018000000000000000000077
:100188000348044B834202D0034B03B1184770471E
:100198000000002000000020000000000548064B79
:1001A8001B1AD90F01EBA301491002D0034B03B16D
:1001B80018477047000000200000002000000000E1
:1001C80010B5064C237843B9FFF7DAFF044B13B197
:1001D8000448AFF300800123237010BD0000002005
:1001E800000000007C16000808B5044B1BB1044948
:1001F8000448AFF30080BDE80840CFE700000000E6
:10020800040000207C160008830730B547D0541E30
:10021800002A3ED0CAB2034601E0013C39D303F8B4
:10022800012B9D07F9D1032C2CD9CDB205EB05255F
:100238000F2C05EB054535D9A4F1100222F00F0C5F
:1002480003F1100EE6444FEA121C1A46C2E90055A3
:10025800C2E9025510327245F8D10CF1010214F0CE
:100268000C0F03EB021204F00F0C13D0ACF10403D3
:1002780023F003030433134442F8045B9342FBD195
:100288000CF003042CB1C9B21C4403F8011BA342AF
:10029800FBD130BD64461346002CF4D1F9E7034680
:1002A8001446C0E71A46A446E0E700BF844641EA80
:1002B800000313F003036DD1403A41D351F8043BD6
:1002C80040F8043B51F8043B40F8043B51F8043B28
:1002D80040F8043B51F8043B40F8043B51F8043B18
:1002E80040F8043B51F8043B40F8043B51F8043B08
:1002F80040F8043B51F8043B40F8043B51F8043BF8
:1003080040F8043B51F8043B40F8043B51F8043BE7
:1003180040F8043B51F8043B40F8043B51F8043BD7
:1003280040F8043B51F8043B40F8043B51F8043BC7
:1003380040F8043B51F8043B40F8043B403ABDD236
:10034800303211D351F8043B40F8043B51F8043BD8
:1003580040F8043B51F8043B40F8043B51F8043B97
:1003680040F8043B103AEDD20C3205D351F8043B67
:1003780040F8043B043AF9D2043208D0D2071CBF33
:1003880011F8013B00F8013B01D30B88038060465C
:10039800704700BF082A13D38B078DD010F00303D2
:1003A8008AD0C3F10403D21ADB071CBF11F8013B42
:1003B80000F8013B80D331F8023B20F8023B7BE791
:1003C800043AD9D3013A11F8013B00F8013BF9D2BC
:1003D8000B7803704B7843708B7883706046704756
:1003E80070B50F4B0F4DAB42A3EB050607D0B61007
:1003F800002455F8043B01349847A642F9D801F087
:1004080039F9094D094B5E1BAB424FEAA60606D0E7
:10041800002455F8043B01349847A642F9D870BD2A
:1004280008F8010808F8010808F8010810F8010898
:10043800002301461A46184600F014B838B5074D8F
:10044800074C2C1BA41005D0013C55F8043D9847D7
:10045800002CF9D1BDE8384001F012B914F80108B0
:1004680010F8010870B4164D2C681CB365681F2D70
:1004780023DC38B9AB1C0135656044F82310002033
:1004880070BC704704EB850C0228CCF88820D4F89F
:1004980088614FF0010202FA05F246EA0206C4F842
:1004A8008861CCF80831E5D1D4F88C311343C4F80D
:1004B8008C31DFE7034C2C60D8E74FF0FF30DFE7E3
:1004C800249201202892012007B500F011FC002396
:1004D8000B4A0193019B93420ED900F011FC99231A
:1004E8000DF10302012172208DF8033000F08CFA1F
:1004F800002003B05DF804FB019B01330193E9E799
:100508003F0D03002DE9F041DFF8388046461546D7
:1005180056F8044B1F462CB94FF41C72214630463E
:10052800FFF772FE30192A462C443946FFF7BEFE03
:10053800B4F51C7F28BF0024C8F800400020BDE89F
:10054800F08100BF20000020F8B50D4FD7F87442A5
:1005580015461E462CB90B484FF4C3422146FFF7F7
:1005680053FE08482A46314620442C44FFF79EFE95
:10057800B4F5C34F28BF0024C7F874420020F8BD63
:1005880020000020702E012070B54FF4EA62ADF50E
:100598001C7D00211E48FFF737FE4FF41C7168468A
:1005A80000F090F9044678BB1A4A6D46694611F87E
:1005B800013B013403F00F03B4F51C7F02F8013F3F
:1005C800F5D12146684600F07DF9E8B9124923467D
:1005D80015F8012B013B02F00F0201F8012BF7D1AE
:1005E8000E4901F51D7292F8703292F8E06411F824
:1005F800015B73406B4003F00F03013C02F8013BC1
:10060800F1D10DF51C7D70BD4FF0FF30F9E700BF4B
:100618009802002007050020780700202400002009
:100628002DE9F74F01EB412101EB814101F0F03356
:10063800DC0884EA13144C4002F12003C4F3032CB1
:10064800C4F30347C4F30366A2F10805083801930D
:10065800E4B250F8081FD0F8048001F0113308F014
:100668001139A3FB04E304FB093355F8089F8EEA0C
:10067800090E4FEA51096A684FEA580A09F0113918
:10068800A9FB0CB90AF0113A0CFB0A99534083EA0A
:1006980009034FEA91094FEA980A09F011398EEADD
:1006A8000B0E0AF0113AA9FB07B9C90807FB0A990A
:1006B8004FEAD80801F0113183EA090308F011382C
:1006C800A1FB06198EEA0B0E06FB089883EA0803BD
:1006D8008EEA0101C5E90013019BAB42B9D103B011
:1006E800BDE8F08F2DE9F04F89B0FFF74DFF0546C3
:1006F80060B1EE230DF11F02012172208DF81F3029
:1007080000F082F9002009B0BDE8F08F01463F4AA9
:100718003F4E40483F4CFFF777FD3F493D484FF477
:10072800C342FFF7C3FDC6F8C85900F0E1FA06F561
:100738001E7BA046AA4600231D460BE0AE4214D1FC
:1007480001364E2E00F12800F8D14E335B1B0135DF
:100758004E2D2DD0314A282000FB03204FF4A072E3
:1007680002FB058201922E46EAE74FF4A07202FBD3
:1007780006820292AA1B0BEBC60900270392059377
:10078800019B19F8011B0490FA18FFF749FF029B17
:100798000498FA1809F1FF31039B283711F8331030
:1007A800FFF73EFFB7F5A07FDDE90403E7D1C7E710
:1007B8000AF14E0ABAF1EA0F08F5C3480BF51C7B9B
:1007C800B9D100F09DFA134B4FF4436246F2781505
:1007D800D3E9007608335919585949687840714067
:1007E800013A43E90201F3D14FF443634CF2F82094
:1007F800D4E90065083422182158526871406A40CB
:10080800013B44E90212F3D1A52373E780240100D8
:1008180020000020F0090020702E01209816000802
:1008280038B5CAB10D4D1C78D5F8C839C3F5C342DF
:10083800A24238BFD4B20A4A21461A44722000F0B4
:10084800E3F8D5F8C8391C44B4F5C34F2ABF0023D0
:10085800C5F8C849C5F8C839002038BD20000020AF
:10086800F009002008B500F0FFF900F0A1F900F048
:10087800DBF900F0B7F80E4A0021742000F098F870
:100888000C4A0021642000F093F80B4A00216F20E5
:1008980000F08EF8094A0121672000F089F8084A1B
:1008A8000021412000F084F800F006F9FCE700BFC1
:1008B800D10400080D0500085105000829080008A2
:1008C800ED06000873B51B4E336805460C469BB908
:1008D8000193194B5A6B42F040025A635B6B03F069
:1008E800400301933046019B144B40F8043F00F04D
:1008F8004AFE58B901233360114E0CB9204607E06F
:100908006946304600F05CFE034618B14FF0FF30F0
:1009180002B070BD042C0098224628BF0422D900DA
:1009280020FA01F1E95401339A42F8D11544A41A86
:10093800E3E700BFF08F01200038024000080650AE
:10094800F48F012010B50246014400208A4200D1EC
:1009580010BD12F8013B0824584043B2002BBABF1F
:100968005B0083F04D034300013CD8B2F5D1EDE7BD
:1009780030B50022044601238B4201D3002030BD4C
:1009880014F8015F15B99D1A85541A460133DBB274
:10099800F2E730B504780025024605702046884203
:1009A80000D204B930BD145C15540319D8B2F6E767
:1009B80038B50B4D2B681F2B04DD612000F0BAF908
:1009C800012038BDF82901D96220F7E70C2404FB7F
:1009D800035401332071C4E902122B600020F0E7B0
:1009E8000090012008B5064A00217620FFF7E0FFB5
:1009F800BDE80840034A00217720FFF7D9BF00BFB0
:100A0800690A0008850A000870B50C46C0B011468E
:100A180022B3224600258DF801000DF103008DF860
:100A280002408DF80050FFF741FCA11CC9B20DF13E
:100A38000100FFF787FF0DEB0403261D611DD87029
:100A4800C9B268460DF80650FFF792FF6C4614F8D5
:100A5800010B013500F06EF9AE42F8DA40B070BD16
:100A680007B503230DF10702012172208DF8073025
:100A7800FFF7CAFF002003B05DF804FB30B50D484E
:100A8800017889B000220C24D3B28B4202F1010212
:100A980006DB6A467220FFF7B7FF002009B030BDB9
:100AA80003F1200504FB03036D441B7905F8203C82
:100AB800EAE700BF009001202DE9F047C0B000240C
:100AC80001AD8DF80340A94600F022F905F8010BA5
:100AD80058B905208DF803000DF1030201216520A6
:100AE800FFF792FF40B0BDE8F0870134042CEBD14A
:100AF80021464846FFF74DFF2C4E9DF805103268F9
:100B0800074600230C205FFA83F8904502DB07D1E3
:100B18000120DFE700FB086501332D798D42F2D112
:100B28009DF807300533BB4202DA0420D2E72C4691
:100B380000F0EEF809F804000028CAD09DF8073044
:100B4800651C0433AB42F2DA00F0E2F805F5807375
:100B58006B4403F8FC0C0028E7D1C7F1010353FAF2
:100B680085F1C9B25FFA85FA09EB0700FFF711FFB3
:100B7800AAF10201C9B20DF10500FFF7E3FE04F581
:100B880080730DEB030414F8FC3C83420CD10C2356
:100B980003FB08669DF80720F4689DF806109DF889
:100BA800050002ABA04795E7022093E700900120DB
:100BB80030B5022389B04FF4C062CDE90323012286
:100BC800CDE90523144C1548002507230195079303
:100BD800236B13432363236B1340019303A9019BE6
:100BE80000F0F6FA0E480F4902954FF46133C0E958
:100BF8000013C0E902550C23056185614361636CEC
:100C080043F010036364636C03F010030293029BC8
:100C180000F0BCFB09B030BD0038024000000240C3
:100C280084910120001001407FB50D4B0D48002133
:100C380000911A6B42F001021A631B6B039103F0D7
:100C480001030093009B4FF480520123CDE9012357
:100C580001A90223049300F0BBFA07B05DF804FB76
:100C6800003802400000024030B5032293B04FF430
:100C7800A023CDE9062302214FF48003CDE90C130C
:100C88000C20C423CDE90E0304240723012506A85C
:100C9800CDE91043099500F065F8044600B1FEE778
:100CA8000146CDE903000F23059001A8CDE90135E0
:100CB80000F0F6F90B4B00945A6B0B4842F04002D7
:100CC8005A635B6B03F040030093009B074B03647C
:100CD80080F84540403000F056FCFFF7A5FF13B000
:100CE80030BD00BF00380240849101200008065042
:100CF800024801224FF4805100F042BB000002403C
:100D0800024800224FF4805100F03ABB0000024034
:100D180013B5074C41F2883301220DF10701204633
:100D280000F0E7FB0028F5D19DF8070002B010BDE0
:100D38008491012007B541F288338DF8070001221C
:100D48000DF10701024800F08FFB03B05DF804FBCA
:100D580084910120024B1868421C1A60704700BF3A
:100D680020920120036873B5DE0701463BD40B6867
:100D78009D0700F188800B68180700F1D3800B6885
:100D88005A072AD500230193904B914C1A6C42F0D4
:100D980080521A641B6C03F080530193019B2368F3
:100DA80043F480732360FFF7D5FF05462368D80511
:100DB80040F1DC808B68854C012B40F0DE80236F8E
:100DC80043F001032367FFF7C5FF804D044641F256
:100DD80088362B6F9A0740F1F1808A69002A40F023
:100DE800FD80002015E0794B9A6802F00C02042A75
:100DF80007D09A6802F00C02082A0CD15B685C02E2
:100E080009D5724B1B689803B1D54B68002BAED13E
:100E1800012002B070BD4B686C4CB3F5803F12D115
:100E2800236843F480332360FFF794FF674D694ECE
:100E380004462B689A039AD4FFF78CFF001BB04234
:100E4800F7D90320E5E7B3F5A02F04D1236843F4CD
:100E580080232360E4E7226822F48032226022683B
:100E680022F480222260002BDED1FFF773FF594E57
:100E7800054623689B037FF57AAFFFF76BFF401B9E
:100E8800B042F6D9DDE7514B9A6812F00C0F07D043
:100E98009A6802F00C02082A16D15B68580213D42B
:100EA8004A4803689A0702D5CB68012BB0D1046879
:100EB800F82292FAA2F20B69B2FA82F2934024F075
:100EC800F8021343036056E7CA68434BDAB10122BC
:100ED8001A60FFF73FFF3D4C054623689B070CD57A
:100EE8002068F82292FAA2F20B69B2FA82F29340D1
:100EF80020F0F802134323603DE7FFF72BFF401B68
:100F08000228EAD99DE71A60FFF724FF2F4D04460F
:100F18002B689E077FF52FAFFFF71CFF001B0228E9
:100F2800F6D98EE74A692C4B82B10122C3F8802E8C
:100F3800FFF710FF254D04466B6F9B073FF51FAF6A
:100F4800FFF708FF001B0228F6D97AE7C3F8802EBE
:100F5800FFF700FF1D4D04466B6F9E077FF50FAF2F
:100F6800FFF7F8FE001B0228F6D96AE7FFF7F2FE42
:100F7800401B02287FF61AAF63E7052B04D1236FC5
:100F880043F0040323671AE7226F22F00102226765
:100F9800226F22F004022267002B7FF414AFFFF7C0
:100FA800D9FE41F288360546236F9B077FF515AFBA
:100FB800FFF7D0FE401BB042F6D942E7FFF7CAFE62
:100FC800001BB0427FF605AF3BE700BF0038024088
:100FD8000070004000E1F505000047422D4CA36871
:100FE80003F00C03082B3FF413AF2B4B022A4FF0EE
:100FF80000021A663FD1FFF7ADFE284E054623686A
:10100800980132D447F6C07292FAA2F24FF44035F2
:10101800B2FA82F295FAA5F54FF07060B5FA85F547
:1010280090FAA0F0D1E9073633434E6A96408A6AAF
:101038005208013AAA4033431343CA6A174DB0FA1B
:1010480080F0824013436360134B124C01221A66EE
:10105800FFF780FE014623689A013FF5C2AEFFF70D
:1010680079FE401AA842F6D9EBE6FFF773FE401B5B
:10107800B042C4D9E5E6FFF76DFE084D0146236886
:101088009B017FF5AEAEFFF765FE401AA842F6D980
:10109800D7E600BF003802400000474280841E00A7
:1010A800F8B5494B1A6802F00F028A42044611D378
:1010B8002268950717D4D0071DD4434B1A6802F04D
:1010C8000F028A4267D8226851076CD4130772D47A
:1010D800002007E0CAB21A701B6803F00F038B42A6
:1010E800E6D00120F8BD3948A568836823F0F003ED
:1010F8002B438360DFE76268344B012A1DD11B68EC
:1011080013F4003FEDD0314DAB6823F003031343D4
:10111800AB60FFF71FFE6368012B064641F2883774
:1011280015D1AB6803F00C03042BC6D0FFF712FEF1
:10113800801BB842F5D90320D4E7901E01281B680C
:1011480002D813F0007FDDE713F0020FDAE7022B75
:101158000AD1AB6803F00C03082BAED0FFF7FAFDF9
:10116800801BB842F5D9E6E7032B0FD1AB6803F033
:101178000C030C2BA1D0FFF7EDFD801BB842F5D96D
:10118800D9E7FFF7E7FD801BB842D4D8AB6813F066
:101198000C0FF6D191E7CAB21A701B6803F00F035F
:1011A8008B429ED18FE70949E0688B6823F4E053AE
:1011B80003438B608AE7054A2169936823F46043F7
:1011C80043EAC103936083E7003C024000380240D1
:1011D8002DE9F74FDFF89C81674A00234FF001099A
:1011E8000C6809FA03FA0AEA04053AEA040440F02A
:1011F800AC804C6824F0100EBEF1020F14D14FEAF7
:10120800D30C00EB8C0C03F0070BDCF820604FEAE2
:101218008B0B0F2707FA0BF726EA07070E6906FA62
:101228000BF63E43CCF82060D0F800B04FEA430CF0
:10123800032606FA0CF72BEA070BFE4304F0030714
:1012480007FA0CF70EF1FF3E47EA0B07BEF1010F54
:10125800076010D8876806EA070ECF6807FA0CF708
:1012680047EA0E078760476827EA0A0E27099F4062
:1012780047EA0E074760C76837408E6806FA0CF6DB
:101288003E43C660E60060D500260196D8F8446063
:1012980046F48046C8F84460D8F8446023F0030751
:1012A80007F1804706F4804607F59C37019603F05E
:1012B800030C019ED7F808E04FEA8C0C0F2606FABB
:1012C8000CF62EEA060E2D4EB04245D006F5806685
:1012D800B04243D006F58066B04241D006F580663C
:1012E800B0423FD006F58066B0423DD006F5806634
:1012F800B0423BD006F58066B04239D006F580662C
:10130800B04214BF0826072606FA0CF646EA0E066F
:10131800BE601668EF4314F4803F0CBF3E402E4376
:101328001660566814F4003F0CBF3E402E435660CA
:10133800966814F4801F0CBF3E402E439660D66812
:10134800A40254BF3E402E43D6600133102B7FF4D5
:1013580047AF03B0BDE8F08F0026D5E70126D3E7F5
:101368000226D1E70326CFE70426CDE70526CBE7FB
:101378000626C9E700380240003C01400000024050
:101388000AB1816170470904FBE7000070B50446A3
:10139800002865D090F8393003F0FF020BB980F8C7
:1013A80038202168E2682569E069242384F8393007
:1013B800CB6823F40053CB600B6923F440531343E9
:1013C8000B61A368CA682B43656922F416422B4354
:1013D80022F00C0203431343CB604B69A26923F448
:1013E80040731343B0F5004F4B611E4A63684FF0DA
:1013F800640527D15B00B2FBF3F2B2FBF5F605FBFF
:101408001622D3003233B3FBF5F303F007025B0077
:1014180002EB061203F4F87313448B600B6923F490
:1014280090430B614B6923F02A034B61CB6843F46B
:101438000053CB6000202023E06384F8393084F81F
:101448003A3070BD9B00B2FBF3F2B2FBF5F605FB38
:1014580016231B013233B3FBF5F303EB0613DCE76A
:101468000120EEE7906EFB0A034690F83900202829
:101478003DD1002939D0002A37D093F83800012807
:1014880035D0012083F838000020D863212083F864
:1014980039009A84DA841A68D88C80B248B91168FD
:1014A8004906FCD52022002083F8392083F838002B
:1014B8007047D88C013880B2D8849868B0F5805FBE
:1014C8000CD110680006FCD50888C0F308005060ED
:1014D800186908B90231DFE70131DDE71068000655
:1014E800FCD511F8010B5060D6E7012070470220A7
:1014F8007047034690F83A00202841D100293DD092
:10150800002A3BD093F83800012839D0012083F80D
:1015180038000020D863222083F83A009A85DA85BB
:10152800D88D80B228B9202283F83A2083F8380071
:101538007047DA8D9868013A92B2B0F5805FDA8523
:101548001A680ED110688006FCD51869526820B94F
:10155800C2F3080221F8022BE2E7D2B221F8012BEC
:10156800DEE710688006FCD51869526818B9D2B24F
:1015780001F8012BD4E702F07F02F9E70120704758
:1015880002207047704710B50446A8B10379012BB3
:1015980014D0437903F0FF0213B90271FFF7F2FF89
:1015A800226802236371136843F004031360002068
:1015B80001236371207110BD0120FCE70220FAE7C6
:1015C800F8B50379012B04460E4621D06379012032
:1015D800834220710FD102236371FFF7BBFB0746DB
:1015E8002268556815F0010508D09368A360336038
:1015F8000123637100200023237108E0FFF7AAFB91
:10160800C01B0228ECD90423637125710320F8BD9F
:101618000220FCE7002103E00B4B5B5843500431E8
:101628000A480B4B42189A42F6D30A4A02E00023B2
:1016380013600432084B9A42F9D3AFF30080FEF7E7
:10164800CFFEFFF70FF9FEE714F8010800000020AD
:101658000000002000000020B8930120FEE70000F1
:10166800024B13B10248FEF7E3BE704700000000CA
:1016780045040008F8B500BFF8BC08BC9E46704792
:0C168800F8B500BFF8BC08BC9E467047D7
:10169800C06F6D6261C5E53FC2B9DE05E183EA8BC3
:1016A8008559AE52EE1455562DE28920630B2AC98E
:1016B8002318655136638100A2573B71D371719627
:1016C8007F9DC70A6CEFC351D4EDF5B17982087AD2
:1016D80050901399A52693DD5BA014349E7AC3001D
:1016E800ECEE4E74AD687224A5200B8579F7445D45
:1016F800E92BC394AB87004B38B00D4FEBB47CBFDC
:1017080018E0648216286B00C481FEDBA7646CCEE7
:10171800211CE196A3FD4B2EB9602BB0CCE322EE41
:10172800198DF6AAF6C4330A8F1B7DBBF3A1AB0053
:10173800A83A0C8D52593BD95C60B2B25F19BC070C
:1017480001F2811F02DF57498DF5F707E86E2A2D50
:10175800467B8908949CE600591DF4DC6651012AF1
:101768004406781516295A0E761198A87F743128E0
:10177800F0DF3483B7F63486D63170063CD9F300EF
:10178800EF2000B13AA11C181E9737BFD428F7B92B
:10179800CD091CA2495DE0C05585EE6C1469EA9B31
:1017A8004236CC0D4DC07200BF0DA95C6CD4D72B4E
:1017B800FC52552C51C93373C0971C8D8A50F43391
:1017C800CE0D89A789B389788D4777BB91899A000F
:1017D80096BCF06C1F4F4C3267510AA04AC80F39AB
:1017E800E707812EF8F787CC3318282F9EBD5A0DAE
:1017F8006FF554D300DA2A00D974199AF755106E88
:101808002E6FD4FF3C77962D6B0D0256BBA4C2F405
:101818006E0D1F1707E913D05FB676178875780025
:101828000958076F9A690D989573F6AFCE21E3268C
:101838006BFF90BCDDC0023DCC0C3D12E7A852A462
:10184800967B6C3216CD5600557397B91F5CC4331E
:10185800F0D2AD66E119A39F4CCE11771235068AF6
:1018680031C12388B2BEB42D8BFF8857B592ED00E5
:101878004E91DD02DE63D1C77CD80FC049809251FA
:10188800D7A28B0996BF429EC53C2519F822B558A8
:10189800D33521314BB32300FFCCAA960679DF1448
:1018A80065DFD99A24B46C8B4F8CC2960A067419DA
:1018B80070E1D339C24F9C94978481FF1644E600A7
:1018C80073CD53CDAD71BDC78AEFDD1F3B755A3E51
:1018D8004820DBB2209108F3C6C3441099876745B6
:1018E800297EC75698C096009F810CF19755782598
:1018F8001BCCAA28FB6346F00639938E8AD923D4D9
:1019080005B8C97676D90E67AAEF27E621241D0007
:10191800A19B3019391AADABB61AB761F22E9AFDF0
:10192800A5B4A83BF0D5AA8B87287AB9701D3ED6F6
:1019380089E5BEB2C95CE4003B9DC86C342A127DBF
:10194800B3B349EC7AB6EA155A195C0DC46F55C899
:10195800BED5519454398CBCC27A3862536A190086
:1019680040F194E59D6D1CBE1CB32404955C4D02AA
:101978004C74845C83158E23B96E3DFBB6F842B374
:10198800378B166FE28FBF00F17B02952608CDDBFF
:1019980047270FCFC52332709729F883AE73D146F6
:1019A800519E9D16A3CBAB0BE6A9214CB53C070075
:1019B8006E935BBC4C1C0D1AF233ABE1B0FCAB462A
:1019C8008588A85D0551797F10F25C18FBCA380E2E
:1019D8004B20A42C203CCD001F972249284475D2C7
:1019E8001AD81ABFA70EF0734CD924DDB1A8840603
:1019F80010D41B6B163CBD96A7FEA24C5AC106001C
:101A0800BB1427D3815CACC7AA5EF73C6E1393C4A2
:101A18004855749C3BD2428EA7FC95D1E4443D7B4B
:101A2800E20E21663F487700CAE2DC01C6F9EC3DC8
:101A3800E5325E7772276519B89A15F2BACC41CDAE
:101A4800F6DB0D8EE453B44C874FC76D6CE24C0047
:101A5800E321986E1605D1C5C6F7B034C838673487
:101A68006C71C0E3B2F4C5DF0C6C259BBBCACA43DA
:101A7800BD66D72A81C6E600036281073A81F01B5A
:101A8800D607350522BA7657C7AAF163E7863F2AF3
:101A9800CAFD2742C1A269EF1042B4E5646F940001
:101AA800A890CC968CE22C02C0EEA5968071B4F278
:101AB800D160C620BADE693922568E51A80F3397F5
:101AC8002A17DFD6BB4F5D00C9244C6BB2D27D2AE2
:101AD80089EFDD1FBC399105A11063F89B12600ADC
:101AE800DAD1C4480E96CF4012D605A2599BEE0013
:101AF8006C911923C939FCD2A199766276FDE18EE1
:101B0800899E3FB0C1E09F9C6E7553A5C8D9803DA2
:101B180033C13EC1C292A200E42AADE3F3F24B0204
:101B28008A6B20575C3C0B13133BA5489D7EDCB1A8
:101B3800245A510807F881CFE846F2CC045329000B
:101B48008C0102B88026655F07B2F3A1EEE9B348BD
:101B5800689B8E5086C62805FC9A8F49AE55D68755
:101B6800C37E0E3044D940008B1BC4EDEC3C35F1EC
:101B7800711375CD312BA2BABAD206731DE3CDB756
:101B88001D547E0B2D0CA98DC1F6F00543A8180035
:101B9800F518D7D6E94321F0BB7DF1D4A8D1C0A070
:101BA8006F503CD50EB21152E304825C2E7B5A3B37
:101BB80070072CFA2F850700CA760BC151B5D97268
:101BC800C74C35365B19080647AFD6A9ECF6EB9635
:101BD8009E6725E8BE474B2C05762285C1D40A00AE
:101BE8004C5622F24D5329D7CCD54466F5EFDE96F4
:101BF8000A7B5A57FB0ACC71A0B7AEBEDDF34B5D2A
:101C08009754585AB5373A00939FE70AF4448B190A
:101C18007EA83D8E5DE30884548580493B0C20A254
:101C28008DAA9C83B58A3C8B78C05C4CF3E9FA009A
:101C38008D1A7B74632481A8E16AB02F78662577B2
:101C4800432C0CD6A8D8AD5E1B3E05F2436F9FBD52
:101C58005558B7CB6B157600073920F430D2BF2B17
:101C68009C453ED758DA55EFFE58647AB832EDCD28
:101C7800DE73CC461E0C5FD90696F4C3754B8C00F8
:101C88001AB9F2C42CFA119ACB7070483EF9FD1CAF
:101C9800D2461F854F5B472294F941FE072D37D066
:101CA80009445A57468FED0030DC862EB1359F64C3
:101CB800C306A4F7AF14C2AF3DE7374C145D2B8DB4
:101CC80099009970F4A54E1ED3ABB074DB51CC00CB
:101CD8008235B805B7A1AD58D0B0E7429AF4178B52
:101CE800913DE3C53C453BF04207DE0945A5811F10
:101CF800B478A0D4C6B9A4002593D95D3C91883C9A
:101D080049743B9EF1E5765AEAE933B63F4C1EC06A
:101D18007DE26B006FC9D739E1A531D4A6CB3D0070
:101D280095CD2935C39ED983589CDECED4141E8206
:101D3800512AA3B27FBBA69788C8C23E999494380B
:101D4800D2484700485222006012D7F412114ACEF6
:101D58009B0AB8FE5914913A30B99E80BFB804B6B0
:101D68005B9AD9DCE8765701358924EA269FC300B7
:101D78004C4E2EAD8AAC95D4B74571CDF241297140
:101D8800E8BF95D58D753760BA6C66D142CC6AE8E4
:101D9800C0C8D165CCBB1F005F94134315BCFD942C
:101DA8002F69524DA1026AA77D40BE62D4E84564FE
:101DB8000A95996AD5810A637E05811D1FE4FB0097
:101DC800BF7CFC4FF3FBA00B719FF783CDF6769693
:101DD8008E638CAF1839B0654B5F494800BF88F4F3
:101DE800034A242F04354200F1C0C0AB5C9563C59B
:101DF800B41DBD090645B5B6810EC9B82D5E385665
:101E0800B5A9227C560FDE17552DF44EB86773001E
:101E180067EB3220509079431B9C8F38A59F5C87D5
:101E280007365F5C9CB876BBF5B37DAB84820077E0
:101E3800D4D6E0A4B34DC70030ED5D28570FBCAD34
:101E480037D0CF8CE0283FA8A56A31AD2D68C7529E
:101E580039656A95CD218FDB8264890EC3541800D9
:101E6800FB29868365FA4CEF6E65F053F1074698B7
:101E7800F6DDCD676D1A572FDC3F2FD9319E5BF504
:101E8800D2AFC82941C48200D87F4C500CF919251B
:101E9800130A7331E26F767EA4070CCE0B6D685B74
:101EA800318A8B7FB9F3CFCDA50E11A28D70A30017
:101EB8003B462A608CD4DAFCE36AF23EAA2ED53C73
:101EC800B0AB85CDCE8D03F0965FF0015B144A91DF
:101ED800D2F876476D2D0F0024A020ACF713596C6B
:101EE800FF9986F0AF88FE6F20C54583B66B370330
:101EF800A30E7FC0260AEEFE62CB9A1E381BD700BF
:101F08008EC412F48B54D1C4EB239AA2C1CC76AA06
:101F1800FD8C5849676A9DE05FBDE2777505788951
:101F2800745E6278A1DABB0070313C8FFA897E3E1C
:101F3800DFBFB603DBAC80F64C4270A4D904C1986D
:101F48008291F59CD1E0987295A336BD22D5700098
:101F580092E9AFC8FCFC61550FB2F672E37325E253
:101F680006D6EE0948ECD77CFFC809015FA1FB8FB4
:101F78007A300F71AEEBBD0039377077C33F42D866
:101F8800DDD49A442E07526405F8B4878560951508
:101F9800037CE1663BD68EBFF439D7B08F0A3A008E
:101FA800114D3B4D686B59AFD7DC61404A1189131D
:101FB8003ACD86EDA8142A277651885CA0BDC8FFC3
:101FC8007B5331C1A93FA300EFBA39D8F9E32A44BA
:101FD80007A86DA954DF6139DA8D42FB12CDB93FEC
:101FE80056F00E6E3CAD9A5D750FADF0A8CC0600AC
:101FF800499BC12AB3F76FCCC5487B718392012CEA
:102008008E2B8DFDB3BCD6DDEC755ED9CB41691D39
:10201800AFF2953B9362ED00A963F321F2DC8B11DB
:10202800865DF96ABF58BCD80984CC7FA14117AF37
:1020380050EE02BAFDA3AB72FA8CDC0754BCEB007D
:10204800048F4833FDA146AEB62048CCF5B93FB55C
:102058006EE77BD4CF57B6EEF339B756223546BF75
:10206800183DB074D394F40075528C45CB8376290F
:10207800DCDB045BF502163D7D6A4986A89B0424D7
:1020880087FA2F206B8858BF5CE7EAD33FD86200F5
:102098009A0CDF0989B4B7C06E5CD04F518CBAD2A4
:1020A8003169E265D8A40070CF1243BF4D66FFFFC7
:1020B8003C6D62860C8363007327878A00B526B15E
:1020C800ADA39265375570C0C65B4189CB734EFA94
:1020D8007EB0F6A2C422F6D657A7AE9330E25800D7
:1020E800D013FD9EBC7C0BF15BEB7A22B4DEAEDE36
:1020F800D031453A1D3E15077AE4DE7CCC5052FBC0
:10210800D3F2210CE6694600D097245F5703564E58
:1021180073D4BDE553C7F2186727CD5905EA861E63
:102128002775DAEAAE5EECED9267D553EC038E00C4
:10213800ABEA56E954507271967777B32FE9359E1A
:1021480087925CC5AE3BF62B853116D4177FC1123A
:102158008734EB1F3FEDD3001C1787A5937F10250D
:102168005F9B9718173EC01EBB98334429FE307FEB
:10217800A1BC533266E786038614CBDE590B950063
:10218800471C3B00E04DE5C433A13EE72CE58C54E9
:102198003C3032B4AC350157CDF306DF502FDF2A7F
:1021A80094BADEDAD5BC3E00B70316643434719DA8
:1021B800AA6C54953097F95736CE975FF3CBE278EF
:1021C8007AFBD8A55F628F44A78B33831D216900F2
:1021D8007A66FD88AE8C4241DEE1821537797BF064
:1021E8004DF3D1B613C95CDE37516D02DF6C05DCE7
:1021F8006060A3965D7B8200E39C45974B500D8AF7
:10220800F2229CF6A87074C6AE87E764DC492844BD
:102218000075F49346A67D0B8437F40C915646005E
:102228008A4627967BC9305B99326AC6D8EB6EF12D
:102238002E9D9452E58DEABD9D06E0872B874C3A8A
:10224800635C4010CF63F400C05989C5C9DE3D47BF
:10225800E98CF86380E957E3D080458E616E0D9371
:10226800D61758CD1587A1F64336EDE8AAAB3F003F
:10227800A273689DF96CEFB15C1B9F9B8DC913021B
:10228800302E0E6733FA51C29EEDC142E90145185E
:102298001F326E04FD794D0015CC512D8993780BB2
:1022A80038AEAE4002B99A69142FB1ED8F48884410
:1022B800D8619B8B5189319335134AFA2C5B4100C5
:1022C8001DCF84892EC1F738D185FA32633F113F7B
:1022D800E0D215565276A936BA951E735214F78570
:1022E8007FFD3FA6B08CE900DEE93046FA110B6AA3
:1022F8004CD0696F4BC2F5252AD554BE0E274AC06B
:102308002B7338A6305C230E47A1CA75C76FF1003E
:1023180041DCA2771536DD5C470721DCDE14D87E68
:102328003F80EE3326AD8B17FCAA65A815667B594E
:1023380090E3444FD253AD006036C778A8808D5BD8
:1023480035B570F62066D0F62AF9D6EBF0436B3F28
:1023580025AB2FB59D1F4740DF75928B2B4E05008F
:1023680067EF8C5593E75C3A0158020A91F4F5A996
:102378005B6BA8E64083E7DF79218DA8ECE3A1F742
:10238800FC91ED2A861C94009D4CFB6E4D89524EA3
:10239800942B769DDC8048E395336E5FBB8A036F90
:1023A80057237AEC98402AEB56B65E303A9C7C006C
:1023B800E9CF77D0C10FF439737F5331ACE0884D42
:1023C8005A3C6B7F2032BA38E0AF8E8910BBD44EAE
:1023D80016A0B8B523377C00D39EA8F1FD5B55182D
:1023E8007A20A96625C617D524A64EE7EB0471877F
:1023F800C2339AF64AEF69EEE62DB50F7E5E4E00BF
:10240800AD1F1EFFE08114CBD1870BE0665AD89C24
:1024180066F475F579BA2023EC582369A9B7202703
:102428007F12F30511121A005CC57266927141B5EC
:10243800AE6CD32F01167E2A46253C06950191F0F5
:10244800F659889862EE02661C6C4516BB1EB700EA
:10245800258CDAA670ED28A836DEBCFD50D70626F6
:10246800C2BC6FBA814B5E637AEDB2FA7FB59B5AF4
:10247800BF96B3593060CD007896124C8CD775A2B0
:10248800521233373D07874E8E68CF8447FD235A53
:102498008D65DCB97C6075007DC1AF80C56BBC0003
:1024A80046EF4697493EDDF3112EAE71A2E0C631E4
:1024B80002399575E15E7A200DC823128904F193DB
:1024C8000AE0BE8CC16DD300EF87F2A5A93386144C
:1024D8004B21B74FC70C04301A8C7DCC72C75C48AF
:1024E8008B03DA1FC8F38F03F2108925C005A800F3
:1024F800005E8DD58F71A076A9BAB03BD4BCF1A887
:1025080052F26460851A309897E4CB9D73956F3EBC
:10251800EF215C0FFA629E00F43CB96B338520EC26
:10252800C03B478AA4C3A37ED564FC6FAA0EB82912
:102538009CA5110D00427BF1CA4FABCB2050BB00CC
:102548000CBC5DEF5A1A854EC441DBAB9FB9D3254D
:102558007A2F146F80EFB01B937A95B07076C8AC61
:1025680021BD3027CC3FBD00D617A3927030ECE0D8
:10257800F5D59C487700A019330BAB5CD07C971637
:10258800E4E2C54929BB2FDCA1656591665A0100C3
:102598002EC37CBA2E6AD82D13EB796982150C509C
:1025A8002F0E8FDD25CE893A865FAC002A423A0489
:1025B800545B41C84432F600F8F39C4FC4F77F21BE
:1025C80052B43766B0358DBB414B922DCA4F4C1271
:1025D8009AADB8D01E732213E385FD7B160C540008
:1025E8005F000AFE95619393962C2CC53C10B76E3C
:1025F8005D92260DDB78F301FC6943FE6E08AF623D
:1026080020F666BAE45CD100065121ABBA9FEF0C04
:102618000B563D70C5D9D429B1B9A6364EA12EC4E2
:102628008B56392B2777122DCFFD3106F166AC007A
:10263800620C5687382671158507C17374AF6F40D1
:102648009EAAC072679890BB947AFDA77DDBCD18CF
:10265800D05BDCF42EA2CF00A43712DE738CD0AE90
:102668005DF8623D4ECA75D963974419BB302F5047
:1026780033222724059765917A605458A864F3009B
:102688008537292E93E433355C90DC23753A93A281
:1026980078974F52AAA37A0E23AD055BC667C4F696
:1026A8004CA7649010A015006926B32A031B077A6B
:1026B800A4B69538CA78C2B48B67253D9E35BA95BD
:1026C80030379096B8F3D9F1EFB6E17AABF67F00E0
:1026D80089CA39C3A42F4EE81C419D1BCA73B698FA
:1026E80086D34CF56991907FC1FF8A167C81D3FF10
:1026F800A1541D45B455B10066E76D8C57104EA521
:10270800F3D744558EFDEFE22A0A098DA7539F108F
:1027180006B5932A77B0163334C12D93342B1F0096
:1027280046896C42FEF006001CD82D0EC5ABD88B2E
:10273800994DA31F30D5D6F7D0CD73DA8EE6F9823E
:10274800CDCEA162101E9D006D64B04BE66FA38CC8
:10275800BBE7457B06A27DF057E6DA1963D1A51FD2
:10276800F742341BCF5203B9A108C4099E5BDF00AE
:1027780047753A55AF3DE43D2D77D3194BBCC76E2D
:10278800700875CB3DF979A27862FA751DA9B65023
:10279800F53FD77B236FE60093E53F5597D8FFAB0E
:1027A8006F9C64807956BC9B23773ED57744A46997
:1027B800E34C9C516C1C5CC49D30F44DBEE1E200BE
:1027C8009FC0A1028567BD342B2803B7D82C7A781F
:1027D800E176422E4EC01B8D77625C85D46FA4399A
:1027E8004782BB1C14080900EA30D1C1B0943B529F
:1027F800A99A0F56A791EA4591433EAFF9D79EB6DD
:1028080064F68FEDC92E90FAD949E61F90751F001E
:1028180034E05479FC059E9A981EBB8AA307494C5C
:1028280067064A67CB8823DE744105179620AD6D8D
:102838005D2EE2BD462495007421B4EB26698271B1
:10284800F74D1AA81402C8241BFA08CD72208B1F52
:10285800BC927AC5A8978412EB9A187A0D4BB700E8
:10286800C487525B416CE8EF11410260F9B85BB173
:10287800E62ED028D4D38EEAA91172AEE71E92B6FE
:10288800E4AF3F6E40AF59006B0667847BFE8A1643
:102898005076A652A74A498E9A7ACE2066DF31F240
:1028A800B0B6C5882F3C11F00FD4A61F40F24E00D9
:1028B8008BE54B5C729B3A8F23D284BF9A4E746728
:1028C800B44BFC8419AFA2BA92CE5B0A9D28E519D5
:1028D800208E0FF4D7C19F00E8B192324BA8B046C2
:1028E800253DFE2CF7C8DC29343F4FA7C1393103F9
:1028F800A5194A1C16CCA8DE4D871C506217060085
:1029080095BCC9047E66AAF3C96139A5FBF00DF729
:10291800093516337502EC9C417D003A40613F75DC
:1029280090E045D9298FAC00D024BE6E95B1E5A2C0
:10293800E824A8DE5442F8F012E9E042065C9E92D0
:1029480071722595941AB3D7B509B690E6070500B4
:1029580021ED046E21D2E8C20604A38E5923BC12CD
:102968001102DAE2363340E6F2382775FCF2A08627
:102978009CA91312F87E4A00473EDA1BEBCD3EDDD8
:102988005B3703C7511C67FED99F593940B8949BE0
:102998007B4C5DEEFABBF18858E84F305C6A00006A
:1029A800EE6EABCB3AFE64D22B99273DEF2EFC4B53
:1029B80055324AFE834412F039664084118DC312A1
:1029C800BA6284FADF340900736C844FD27C15979D
:1029D800981937DE006526395099318D7EDFFCF372
:1029E8002F66DEF4E85FFA67A44AD1F5351A8D0040
:1029F800C6861EDBC71E8B6CFF9045D25E548924A9
:102A0800207EC94ABFFFCC2F49924147F9955A1EEB
:102A1800BECDA4919CDF34008FB393EE8C07DC5EAF
:102A280014FD587ED947CF21D3B0F2D238231AC823
:102A380073F760BE85FDF9B84A539E5805421700E2
:102A4800BDD6073574A7E83BF69341A99BAC44AAC9
:102A58001E6B96BDA0C072F2454C6BF2837732F5BF
:102A68003C022AF75118DB00C7E6FFF8D976918AAD
:102A78007FE1D9E14403AE7E3B528FB72A6E490904
:102A8800C5F343A9425BE3191367521D6FF1230095
:102A9800591E5C2168BD54A53B57982A719A960F18
:102AA80090E6126EC9ECCB23D0815E76A02A3894CA
:102AB800D8F281F3B93849001D4A4BEEACD5AF8E38
:102AC800BCBC1580B26F76659D6A55D1F07557808C
:102AD800FAD4CFD572463722E2BD57897F10560007
:102AE800AE0C9CF6B68B6C469B115EDC49D5FDFBA3
:102AF80064141D5CB5AFD385032670AFD4D6CC3231
:102B0800E63DA4BEF3964E00AC18EB46E814CF861B
:102B18006C98E348582EF562711D9D7492A9DDE703
:102B2800DD677C8A578CDEFB5F93BD134D383E0012
:102B380079FA0966241B579142DADB43FE2B987217
:102B4800D6C9845B9FC31C4261ED788722E9D228ED
:102B58009547ECAD90408E00B29699F5379FF17984
:102B6800049BF70ECAA31B771B3E0C8A5F31082211
:102B780029A754AC9B36DCE05E3AFF404E3D44004A
:102B88005C08F4169C7FA7BEDD7ECA17815B5F8A4E
:102B98003769F3C4BAAB4D12D735A87441E4FA12B9
:102BA800F7CB63E442A762007EA344BA272801A8B2
:102BB8006E4CBA76F799835BC0F37F214B8937E86F
:102BC800C6BCBA437311FE4DE5087692F8CA660092
:102BD800220E450005DB3C5F1AB4AA759D07E6E99D
:102BE800DA719FAF88FD73D162DE5CEE27DCE3AC5F
:102BF80008741F37DB27BA004C015CA181B7A5DD3B
:102C0800363BCB932F7E3FACBF1B6D012656A9FDEB
:102C1800543B7F68B545B3D4A532D6CB15044A00DA
:102C280099C61DDF9A172985990CD20F5A92B62892
:102C3800498B588BFECA1491B0131E754EDB297947
:102C4800B034C3F53BFA1A00948DF1885B63AE2368
:102C580090B9C4CDE2B1851EC2D2D9C6FCBC9C4293
:102C680062500A1FF083AC75655491DCF8012200AC
:102C7800F82178F9F11896F7BAE51E45F8692F2575
:102C88000DC41B5899A63711C4C8D702EA9B369CB5
:102C9800F8D012F32342430038663D3658B2B9786B
:102CA800CAF5E880AB4BF0824337460A1A6DCE501E
:102CB800BE874C66C8C2E3E112CC0C22000A0E00A3
:102CC8006FEEAD4742CBD9735851BE5757CFF0AED0
:102CD8005F62B31C637F8F8E9CAEA03328371B8C3A
:102CE800045FAC4AFC903100382B214485640DF018
:102CF8005AE24ED55F4D9E5AB789679ED66B90EBC8
:102D080086F4091F6E8D2D8BC7A7797407B9F20059
:102D1800CA5B6E518A03805CD91E1ABCEB6C357392
:102D2800FF40E601B36AF9A00061DA59B87ECEFC2B
:102D3800CDA7A932C61B49001FBD3A33A8C78C05C9
:102D4800ABF6427473E0B24C0EBD13F9F27AF3029B
:102D58008934B71CE6C7A83C84BA1ACD069100008E
:102D6800C5EC3D905955D1803EDD090CFC99A3F87E
:102D780081A9E9A98EA31A43FA392FD1E7F8F60EEB
:102D88008A3C797175D8F300FBD9EE892171F2C6B6
:102D9800A51B628347F5A1C65FE090B75764A28878
:102DA80099E417F90EC6BC99AE6BA0330B29FB004A
:102DB800BC80AA57BB21C0077A1C39194B6700464B
:102DC8005709A72071ACF6A3787F865B1C4D0112CA
:102DD8004C354C1DBE86D800218897679412C74988
:102DE800D2CBC92CDF26863BD6FF69AD5D09BC1C5A
:102DF8007145E71078E67119253075A05791A40040
:102E080076552B2181AA12D802C50F06D92270D176
:102E18002E987D777FE78EFB2E40C2EBEFDD6AA30D
:102E2800DE77BB42ACF55A00773E09D155C508B1EB
:102E3800840D1DF5FE2BE0AE030CA6C397C7B6FCA8
:102E4800204B288962F0733AF7302FEE0F41630068
:102E5800CB99C3630A6B8FE80EC4422CC80F517913
:102E680034298153D8E4CD0E30C3989D0A1CB7038A
:102E7800EA975DA1EF8E6C0070AC9AA315E474BB61
:102E8800AEC124A3CCA75918DD24113D02BEF9C553
:102E9800A69D69F2F59C7A7D26D2B835ED58A70033
:102EA800D16A524B4B1A9C6460F8B6CCA9E29AD806
:102EB800563FCC50DDCA4BCBA6BFF51D5C16CA6683
:102EC8008595E8FF31C4F8008EF7CE70ECF43D3FED
:102ED800B83A701E48CAC2BF798A1EEDF0C91F36BB
:102EE800E28CBC90AD52D396180CB6B48E1F190064
:102EF8007F49B2E2B77F3871F1685E9C79319711EA
:102F0800888B22C2AF669404656A789A03034C1BC7
:102F1800299FB62939890100B16F3E50DDD062255D
:102F28007AE2AB08F3D7B63B62C3F0D9F96076030F
:102F3800B91D8CCF586CE4C735DB2D38B4A6990081
:102F480098FB4A8CB8F08832E63D575539723CC335
:102F5800CB6282B8D3AC3FD8F1E1F7423B5380B1A2
:102F680093C00D4F504842000D44B8B28008A3EEFC
:102F7800D806CB7D7F969B69834BB871D2677DA1BC
:102F880004AA1145C2C823EB1FB7DEFD54A17A007D
:102F9800399D1D796AD22BF7BB68D58C8791E5CF0F
:102FA80083E1F044D938C23A9F51F596155D18422D
:102FB80037A2DACF3189AD00D63BF2013836453732
:102FC8001D46F4129D74BDA32492E1C9F52A91749B
:102FD800FD0F6EE3F52B5541D2F8427678775E0007
:102FE800402EE86A41863143B9FFC6A56D007A755F
:102FF8005F33FC62957D21A9045E6FE37193FCF950
:1030080019787CF8E2B65800DDB8CB2C53A1EC480F
:1030180050FD298D5BB2CBB8CED57BE8B4B98E5FB5
:10302800F397B540ECA33AFE2FC978129F225800B7
:103038004812EC2E1D3D7705B989E7A27854E03691
:10304800E4247B9BBC1AF3C1F83A5647C9E260E610
:10305800D895EE417C39AC0075121795DF1BAD3E53
:10306800BD3981BDBD1A174F67FE26A9C2BB5BF4E7
:10307800E137644BDC657D4A4A9F212DBB5D110019
:10308800574A42FFEE44A2D1B5D6D06ACEB56FD624
:103098006A011C0D0E4466A80C5E8BDC630967CDC3
:1030A800587943F25076980096B8A8C1CEFF87FAAF
:1030B800ABC2954CC668427707E92F48E61037FE41
:1030C800FA01AB2273C4CA79EADB0E527C370600D8
:1030D800330A48CEBCAF7E9C254E6A532F0702C4E4
:1030E80072D868A64F745AD6A88F2C2DCD6DBD0CFA
:1030F800D0649740860305001777EC61437CFA2873
:103108009DED10C8495836AE6B801E0BAAD7CD96D8
:103118009935BFE1CBC011C2AD34857694CE780025
:103128003FFFF2D2C6460A49767C13F1599BBDEDA2
:103138001B17C5D57DE4AF935473E2AE763740587C
:10314800803F94B32959C3004BC0F798ADBF987816
:10315800EA8B21DB83FC634A73A5BB4882C1AD0EB1
:10316800E829CD614F2C5C3235AA85F99BB1F40072
:10317800A2F1931EE2395489DEB5151C1C19AA1850
:10318800BD23205BC84D3EB49FFCAAC4F596653BA1
:10319800E7E0E6CCCFA57D00D1731C951D1B379BBE
:1031A8009CD11CA0A37FD4EB8E996B329A0C8DAB6B
:1031B8003158E5CCF828671F8FB8360414DCDA00DC
:1031C8005E957E4B1B0DEB62BA5CD610295BFA68E4
:1031D800F217F377CC73EABAEA7F578ACE27ECE97D
:1031E800457993D34F31DD00754158D250C018E36B
:1031F800ECA5D78942E5CDA03D984E8BFC789AA8DE
:10320800952DDBC5FFA5CE3EA2821E8E592FDD006F
:10321800C29BFC5D33846FF5610EC42B7FB3D9E587
:103228006983E6231F3F739D73D3FD8AA51B2BEA91
:10323800EDD4185CED1C1A001DA67595CD7B2B3FAF
:10324800E7709AA4003A7AE2C109C68B6658DD7D18
:10325800DF4C72A3FC62EDC5B7134BE1AE8CCF0017
:10326800303FCB20A223991F635EFA4A886401ADE0
:1032780090E9CCCC664420C6F335556D959E7ADF2F
:103288009DE9AE72ED3A7A00C8E51CF174B3AFF669
:10329800F844EFCE319D14894165E70BD4E6517EA1
:1032A800D6D51BE821AAFDD9F0CF4C3982D45A00D3
:1032B8006AA83B6F41A8AF9B5671B34C4C7D6143E4
:1032C800A035D7CC0BD81352525FE3C7CCF69DE993
:1032D800DD95080AF68DFF006A883D21D4526C17E7
:1032E8007883C93217DE7E16C7969EB364CFEBD8B3
:1032F8000F81ED58EFB45E79A41FBA212EF9690049
:10330800D318F3435FDCC54925D8CF483141CE36C1
:10331800F0DABED843D10D0AC94E72C0200E622A17
:103328009B734E482E45BB008F3B397536DCF94DF3
:10333800326A452A5E3C9A960E9C4E1F3FCF5065D6
:103348004D51BC6867A7AB8458ED7CAD1E71BA00BF
:10335800A53FB1906F3C17756527DF864E6CE84D29
:10336800E15DD92FD18A9AA58D00D8BE22BEC4B9F5
:1033780044021F77F77DFB0028AD90ECF0E0C11503
:1033880049508B0E8F129FD920CCA596EDB1F66DC2
:10339800931895FAA5060D1CF712125A35552D00EB
:1033A800D28CC6E767C3049C8E89B562EA5A1FBDF2
:1033B8007A2DF042AE4320ECA2E81DAF9E2C0D7989
:1033C80000953610F3CE4C0055ADFDEC2ACF2C50AD
:1033D80025F2C001DB529AEC2DAB2DFFAEC564E59A
:1033E800417526459F93A54DAA325C70365FA700AC
:1033F800741FFE47B9A0B18FF827116332629F8707
:10340800ACFF9047E7017F365A40E5B5318D973BD1
:103418006ABA1FDE7FC8E500A1CF4A51CFE28644D1
:1034280085BE3CCD6B71D083726D45F7DE7D2BF781
:10343800CD6380BD3CEF0A81C68206518E4F900055
:1034480036AEA8141EC347573A34E5A45502A380E4
:10345800C253F3EFD683CEB46A13B95B6DE7332852
:10346800B534C28B3CF3B9006CB691ED11F7410449
:103478007A8469A467B60FD48B817776D067B56EE6
:103488006D1DA01200DB83C5EEDB9A1157FD6200AB
:103498000D8774FFBF09EEDF9F15222C3E51773F41
:1034A800E3633230C6F8577AADC495E006F2C8B087
:1034B800B65EE6B6E6A6D600AC0C759B0AB39FB41A
:1034C800F97AD3C1CFD9E0EDED38244594CF352D25
:1034D80099C6D97611358B6F1A32ACDB2637CC00FA
:1034E8000AE3C7333D617D712DFA115688D5EF5C2B
:1034F80070AB68CD28E5DE31089EB85F4095094974
:103508003C0CA81397477000970EAC3EA86BFF526F
:103518002825DAD67931A434D1B736C0A38869E42E
:10352800C92C1AB43639FA37A7E5E38E82DBA50031
:10353800BBED944431248DCF000A03FEA17FB182F4
:10354800004DDBA21B3F1591E559D548C25509BC72
:10355800EA6A720812B9C300D3A68F39A43459C1D4
:103568006EDD700DF2B87E46D9D47250E2ED38F4B3
:10357800FE81922B1145D57B21E209151016FB001F
:103588006DC8866696077170C22C084F6FAE0469C5
:10359800B7021C171B1128A200D231A12DB097E148
:1035A800FC382167885F5300EDC1DBFBC67C1060E7
:1035B8004191377DDB1F36C929BD7065E440C7B32B
:1035C800438899BC37BC9A412AA96F1C26980500E4
:1035D800C011C0CA1096E845517AB7435E9E5E2B6B
:1035E800BD7521A8FB75C12B796E8D7F199CD521DE
:1035F800C461E0CB3ED8DE00A1908E6AA8FD9A7522
:10360800B179058CAD56E4DB838A854744102E10CA
:103618004C1EEEE0A5B0D015C5718908A8DC0D00D8
:103628002B07D9707077C80805199467048753B5B4
:1036380039A660ACAEC4BB0DE1FE6EC9D68E508013
:10364800A7315BA69BC30200C776F0607B0661AE1C
:10365800F01B24CFF15514E5EC7F0F987770342FC9
:103668007B4B28D79BC4399AA773307C06F7040094
:103678006BA683F67F0454A10695D20F10D88B0C45
:103688008FA51A2F4BBB508A556E6348F359717C2E
:10369800AADF22FAC7325300FFCCF4DA3E5D250ACE
:1036A800CB09C581B445CCB2C518EDBF352C57F848
:1036B800B3435D67EF218A7E4D9D9F68D5615200B7
:1036C800C2364F86040FD327CEBD7D292B6C7833A5
:1036D8003222644462D8BBC9D3005108AB2359795C
:1036E800B9A6039B7DBB7A000AFA4FB1879218EFFF
:1036F80066973AC6BE92929669C5B9FF2FD4A41AA6
:1037080062E5452971F8EEAD2204E798E185C1002C
:103718006C0FEA6C1CDD5CD4D2BFC5B365B2FC3259
:103728002D2FCBA612E0A9B921411DE8B343551CA2
:103738003020A7412671A30089543F0997399AB0D0
:103748008F3D989287782056EF28505C6579D8F598
:10375800311DC5C6BE4B11C8330E2D67B0B34E0020
:10376800B0580B39176D189F0A48734E199EE9A176
:103778005B65E607D36815FB2562A7CD04369987F4
:103788007481CEBD787FDC000BD70EF354A0682877
:103798008C7A5ECFCE4C244B5F1FA17790BEEF9AF8
:1037A80026AFE3C985CB19F909D8B6F4AFC39C0095
:1037B800FB99EE176DBF2666DE370E7AA5ED5145EB
:1037C80057D83980F47CBE4D66C884F8C3B84BF925
:1037D8000258CE9D9B1818007292E2D245C142D77A
:1037E800734D3B088F5A2979579A5925B2B01F6AE9
:1037F8001C365044301E677D5884E5ABE3858F0046
:10380800D62D13CC4B9FEC95F16F9214BAFEAAE219
:10381800C92E3263918F14727C8C64EF9F86B97ABB
:10382800DB8685E4C0225500767D63E01BD4313AFF
:103838009A4A0F81182A6A8915333070DFD11A5FC6
:103848009874920952A9493392FA6E24C5D3CA00D2
:103858004D99B6C7F2624D274EF5D2A2C8F383AF91
:10386800BCEB9A5FF97BA072185DEC63529AB41FA7
:1038780056743DF8A308430007A10466D092B92FF7
:1038880035ABDA418F6E80B6C982833CE709FC7C90
:10389800C2A5D8924585531909D8F5051CB38200ED
:1038A800E1018C95063443E8AC9A657472E54AFAEE
:1038B8000B46FB3899754247AFA5C9CC07F5482D8B
:1038C80011CBEB363E612E00B456CFA11B4CC9E498
:1038D8001677BC7B0A558BB852F44EF7AF133C7978
:1038E8007484E7ACB3F36943CC5960AA532EA8009B
:1038F800DB7FEA07B2EC58B84A44F8B4B17F2D6CC4
:103908002AF1300074EAF92060E632DA75A2C2ECD6
:10391800645B9D603EA001006AC066AEEE362EDA9A
:10392800683A60C4D107111C3636DE11C0E58DD95E
:1039380036C30E566564080B4704998EE46839004F
:10394800D0771091670B82F33A9017A8B0EF8438BC
:10395800A8C77CB723315DB38BCA24793B610C8F30
:103968005318D5587F18030091E39F7EB0E7A20B48
:10397800B3F9BBFBBA0F93BCFAFA736D53E973CC76
:10398800EAEAEDF5094B75C4AD05848FDFFEE30067
:103998002F1ADE05FD639AD718828588F9B918149D
:1039A800AF0DB28CCA3EAF39A59608F872F5E5920C
:1039B80004A13F69F082460018D85CF67283F7E2EA
:1039C80011ACBFCBE04E4913F147280EE4C1E442E5
:1039D800D60FEDED953505780ADED3F36ACA2600D1
:1039E8001E7DA0AA69D288AD51AF600078A778651E
:1039F800A1EB96E6624F263B1AF1ADF5B384FFA51D
:103A08008F34D20E07712B007FE4403AEAEC9654CB
:103A180032D072DAB9E8458DBA70901510E6726D39
:103A280043DD40A516546C170D4115E20330ED0037
:103A3800B6D0C2C890909959F2321BD050DB5F09BA
:103A48004ED9FFAF1D2E40D1A55B9AB17457246E95
:103A580082B0975568C0CF00C279FF6EC1A36DEFE1
:103A68004FAD7570A1792D8A1144F1226CE1C3B66E
:103A78000886535F88D1B38ACDF5E7F9A8DD8200BF
:103A88000924B3E7858C7221668B734C3F3030571D
:103A9800442ECC71C80474DCEAD6B7B9CA10001435
:103AA8009B14481EB2F5BC00F1A616BFE1ECA15468
:103AB80060D42DF11EA405285F0498B82C6B3897A4
:103AC80077ED13B1154E37F3C0D9A174EF3958000B
:103AD80009E5C2F5271A43AAC4A10F530D5F9958E7
:103AE800C30A89C19F8D614C0D794AE25415AA79A0
:103AF8003F725688365A5F0021F011E88E0CE6B9FD
:103B0800FA53838A019BDF5BC9B06180E2590D5883
:103B1800171C55B6BBC7DEA26C12E2316B6DE6000E
:103B2800A6D7B08F050284DFAE29953486706F5F03
:103B380093014F6F63E5C3B2E762E8BC1E6B1444A0
:103B4800009981A3ADEFCF0021ECC2406B3B11BFC0
:103B5800C77BCB38A386122ED3A29C2A0A1946BA51
:103B68009E4D04E48F32D0644ADFA86521D6FD005B
:103B78005D244F1108ADEE48D3B3C0CD55A0CC811C
:103B8800BE36D4CBB8CF512F7BBB8AC6520E6F58E6
:103B9800B837C929C43C2300DC7608CE2CD1B71D20
:103BA800B54062B4EE2042307446D1D7DE1828BC46
:103BB80019101A90CF5A25D0C7AE3CBF77D98900C3
:103BC8007CAE6ABED1E773C493904F8286806DA4A1
:103BD8004A91174D3930D5CA3E0729275CCC507613
:103BE8005DA51F54831CB3008573A281B5E54BF610
:103BF8002F8A34C1468AE1533EC4A6356B99582FA3
:103C0800447B8F0D519B985243E06900137F12004B
:103C1800E079A25DBC4C8841FD81DE06886D852077
:103C2800D1ACCDDD5FACD149314697007BB8D65ECB
:103C38007ED0079221431900171912FF1BEE348A10
:103C4800225DE1A043A699488F7BE9DE45FD9E539E
:103C58004588362763ABC6AD4984F902B501DC0057
:103C6800AC8094CAD8830CDD9E2B3A377E04F21DB3
:103C7800F2E65E965BD8EE4B7C423B02C70071775A
:103C88002E8CE5BA2AA5C00048C8E69784D6F6A3C4
:103C9800F8F3D8EFB09718B35863278F0CCB40A927
:103CA800AF8C0CF8350471232E7EF9300B4ECD0005
:103CB800AC7B421957837DACFBD018389928600239
:103CC800E130E5F4DF13771DAF1B8210A0516ED0F1
:103CD800529A104E03149B0067FD01D173AA25D98F
:103CE8005F1690BFF07DD0BC5F3CB9426F61E24582
:103CF800199AAC6916A57C4CA40099A26E69540067
:103D08000EBF9BF4842A0A67D419EBF772DE6D0B99
:103D1800C9BB689EB8414F9103267E44A646357FAD
:103D2800373579FBD080D9008C801FC55727523290
:103D3800B764B6453F97A4345B2A806F0AE5F8114B
:103D4800F5F173F8757A30D7C4157CF7D768140085
:103D5800AB60F1905BA3FB8621708A076C88B597EE
:103D68007D00B90AB691CE306026C97DB079BE5CB7
:103D78004C8D0479BA3BA80061018E4FF41D91CF98
:103D8800E7C5EFCFBF93ECF46DBA521F8BCD54EE5D
:103D9800C4E72CE9BD5D565388C16C2A1AD5690061
:103DA800161121524DDFA885377B4FF4E3C28EEC04
:103DB800A04CD3AB15E863D659D7742A6FAB3B3BFD
:103DC800EC20B78ECADAC3003075A0837462F6247B
:103DD8006BE83852D9915504226432F8926ABEF7DA
:103DE800B6BCC233CDF34612D54F8A9420DEBB0051
:103DF800975F9309ED7E18ADB98E13E4B9522BABDA
:103E0800C5E27ED6C4D3D41D6E96DF770B1C515302
:103E18007EFA5E31B67D7F00AC5485D0BD0F8D86AD
:103E2800E8506E0C69CB996F7BCACEBF030F115156
:103E380058860CB54CACB4924709A44C64499E0012
:103E48001F79C473AAAD7DE21B6DBE3C1162F77089
:103E5800AA9A0C2D75555C8F79991EF589CE4AACB6
:103E680007EEE4EA215F9F006C8FA261B865CD7F01
:103E7800D6B52D0BEAADCBB5BC965A76BCE2B547A4
:103E8800B86AF8B21422D69D38C1AD4F2D74CA0055
:103E980022FDF6AD466FB5FEDAE8ADB2D96E70CD4B
:103EA8000CF6FD96820211A4D52F1F7F3A539A076C
:103EB800DD6DDF9B46113100C6F32BD311F23F565F
:103EC800706AC481EDF18AD0C4001D5403DD92AF3D
:103ED8004DF33ED82C19587B0E4B42570069A6006B
:103EE800B704B4F204F87B804BDC97F4BD6B1D7CFF
:103EF800B9C76A2FFAEFD42A00C93D5AB21F6F3BDF
:103F0800A8DE8AF21E074D002B66A7E6A21A4F62AA
:103F180072FF15631D3C2B5D89BB30BFC79E856E44
:103F280085CE0010F9B2E36F3F5831C4A38CC300AB
:103F3800A8291018217ED795FC5D0B7F22F2B35477
:103F4800E3728DB7B78F3B52E97AC3F6CEBC8E4089
:103F580041EA00775FB46500C08EC516A1710A9B5F
:103F6800C7B5A58A5435BB4DA1E8FBD275570BCE12
:103F78008C92DE6B65F5780020AD7446A05E570024
:103F88004EA0B02A22CF742A6133E0EA90A7505697
:103F9800E5EFF1F4DC9E926F3E05DD7280D101D32E
:103FA800640618C026F4C20075A893E54FDC06160F
:103FB80038E7A09F146B4C6B74093231CB9635B837
:103FC800F9FD5A1656C72AD89666F229B5616600D1
:103FD800A4A171EFED5F24967349C7F31EF75856F5
:103FE800F9E4A131EAFE214CE7813D0ED425EBA787
:103FF800F552307248DEB400B9ED9032555520C004
:1040080081D5E7B1F4E2A99B46D09F2AE0169148F2
:10401800FBED958AA5074981FE184A4A94F2AC003F
:104028009A1B789486FF6A070A8F6453DBCAA65ED8
:104038009C9F770FA84E757823A42630CD0673531E
:10404800645CFA490526AE00FA74390D769F2C0E89
:10405800F98FB93B52262F983FF0462DC1C43F2D0A
:10406800E9B85D50D621B7438C28581D0F2CAD00F8
:1040780020C6FF33A353F2F7668FC88B5411E7E7C6
:104088004C3D41ADA6F70D1BBE8228BFE316D314E5
:104098004B9F43F6D501F6001693221336F4E79D9D
:1040A8008E64904550359AE19A6DDBDBB351FD5A29
:1040B800CB5C7BAA3EFB1EB896E22357A2DAEF0040
:1040C800F6622136E43638964B2727DBD04822F5AE
:1040D800B21658C0FF3A91C7DC4E334DD3CA1AA264
:1040E8001BE5FE466E517200D3CD8544ADBB4CE94D
:1040F800EC79960FDB42DE3EC29DD76BEC4CCD9B34
:10410800ACC2A70F72784BD7E89BC24CC16C0D00AC
:10411800756236D1E236A35DDA33EECFA5B84B7FB0
:1041280062A5996E49F1502E14ACBCB9703B3D0A9A
:10413800F4581094EF8BF100BFC43AEDD7E86B0147
:10414800DBED933E17919F8636A3414E417C600C70
:10415800BB369CC1DD8710C863481F524BF07F00F7
:10416800A68CCAC941D2FADB62B5051BA0FD54B8BA
:10417800A89C1FD12B33E78DDE8AD2D67777EFDF65
:10418800831F5C572622080061456AE6FA71325996
:104198002BEDA3E0162EC1D472C2130996E568353B
:1041A800FC842AA07660C9145E450017011A5500E0
:1041B800C510DD04BFCDEFCA37AEACF6EFD09C31E9
:1041C80036A2C334FF74681C8068B2A0505FD7ED74
:1041D80043115DFA5176BF00E3EFABFB7BA9827A0E
:1041E800F94A84C6AD399A8FEF5AB88C8014E7F033
:1041F800ACAFB108E2FE39638FAEBABDF8F3B800D0
:1042080082BE8DE5F4B42431E2D24905185F78AA5C
:10421800A79C890354C8E60771718FC714A2DF6E83
:10422800B6366287BC4A1400BE1F39AE6FD6DCFBB7
:10423800B90A83207F9C74D1AE29C782FE408FA320
:10424800262E2DECCBFF1B0064E5D4BA4CFA2E00C9
:1042580013954DFB86FE5DD15BFD6097291F2216E5
:1042680083821D4FDD483ACCA2FAFECEB2BFFD557F
:104278009678FD3542523700976EE6F2DEBA6A9FAD
:10428800DC3CB7864A00CF6A90500480C549009C40
:104298006B182169A4DFE8ED59315BD19FBC92000E
:1042A800948F1A2DF5A7FFC319A6BEC4B633F0D153
:1042B8008CEDC1C0F3946A0CBF497E189B7E92AC0A
:1042C80043D51EF0BB11BA00CFABDD4F20F410D39D
:1042D8004B5C219EB5219BDA1D6E85496E28152001
:1042E800EE5554247BB62457F747034BEA8715004D
:1042F800A3C45212C3A561A6A937A2BF0D4E8FE46D
:10430800054532AC5AFA95F2DE4C4EB855FFEF0E21
:1043180046BF7BEF05956000A23764006ACA671D37
:10432800C6E428D9928DF32BD2723C3E277DD6E67F
:1043380016E687002F19B09DEF241601F6512500C7
:10434800D181BE00964AD225EE2BEAF28D96CC6535
:1043580013C3238938D5167A1F8DA8BAB990B2F03D
:10436800678E07861C26F800AFF051B9CCB6717479
:1043780078DC2CB7318CAD1D241EACADDD6786868C
:1043880010F0E278DD1FD9F0FCAC772DD8CFA20071
:104398006754A88A9C850408CB260CA2734FA7886B
:1043A8006D8ECB1F6EA18BAC54B7E1BAE53D1EB143
:1043B800B74B9AE135605F000611552366FB9952A9
:1043C8007B76ED0419D09F1CA4640E640BF12805BC
:1043D80044C7E729CE53F1765B45AD119EDB270034
:1043E8004D9883A0137FB873F11B7D784A402E1A2D
:1043F80092DE034ED177B3A7E69DDC838E1BBE28E1
:104408007EA5E08CB3307900CFD780C924582AE242
:10441800C69669B0CC4E5B95D8780B08E2C428B034
:1044280014BD902F8F9BBB6986CB115E3B1AA900E8
:104438000DBA1F685AE0E53C580422B1D32128B5CB
:104448000D57C0283EF3E4A0119C6E662796D20F44
:1044580098588128F6E6F7006AD33FED33D80FF76E
:104468002EBAE64C42A046FE20691380B41B0D9973
:10447800D71D41F21CEE59CBB64EF7CE052EDB0008
:104488009727998AD49E6CFB8FACC01692AF0B2BE2
:104498009D9B695EECD4C54BC99E75ACB3AA9FF3CE
:1044A800DCA12FBBA92F4E00844C77EA7D0D136841
:1044B80046CBD306F7412971CDF3C141A0ACAF2952
:1044C800308A2058D9F201281CC035FDB0F43F00CD
:1044D8003CC8C6A1EBD645852219CD8DB8B97A87D7
:1044E800D217BE93DBD8D93BD7E96C9894DB11037C
:1044F8001F974D1465F28200979553EE320B60B505
:1045080032834F9A6005574FB1AAA470DBF8FA3B83
:104518007ACD037A41A23E461D71DFED7F25250045
:10452800D1CDF51613346CC746B8D37C406D3EC860
:1045380087DF84D200946B4907F52D834D0CA44F77
:10454800FBC43E1113CEEB0076B49A4917E7EBC7CC
:10455800B70EE6BEF0A16D7FE4F519D39D6618226B
:104568006485A17CC8785A5D287475B25C184100CE
:1045780041FF933E7846CCE20781B5C5BAF50C3EBB
:1045880033EF00FA8B259EA54BE7C4F9AF9BF224C5
:10459800218846EFCCF024007680DB5D454FCB8840
:1045A8004A3896325B150043DD385979B20E053129
:1045B800C13DC6D780FD29C11133069F380EB3000F
:1045C800C9D8B87A543A03C4F7C8646D9E35494FC0
:1045D8008D4CA11BC04F8A08320911FEDB8C057275
:1045E80033CDCAC556A19A003B5DAAEA571FD937F1
:1045F8007A9437785F5DB563B3893CB2EB1265ABEB
:104608006E0164544ADFECC0BE16851B3EE7840089
:1046180018BD4DBB2626A72921A058AC6F296B7160
:10462800260BFAC916D39C69D8975544C7C7B0B9A1
:10463800547194F0E27BB800955CE84D5EFC37B5A8
:104648004D0900FEADEE6FFC8DAC732048C30F849E
:1046580048F923CDA85A862CDD84A3861651740008
:104668001E566335A012A65828C6C2D8A25B304988
:10467800D71BC58A90304DAE5249DFCA219F01CE63
:10468800F5DC42432B69730047F47E9AF574BF78D2
:10469800A5B17053EFAA1EEC0F87B474ADACA0EEB1
:1046A80047125AAEE27CB4998E8FE9CA58E7F700F0
:1046B8003ABD08D3712E5E94BB05E33BCF9BE83F20
:1046C80064F3674E66EC490642C4D73997A6A26ED2
:1046D800574D0383428E77008E90879C28A2CC4545
:1046E8002FE165312045EA56888102D7D4019EAA78
:1046F80043BB25CC7CC6175F78EF32D1B7E7F7000C
:10470800BD20BF5C4F048CC75234652852A4E2D246
:104718005FBC27053F6572FA2A15C56F42D3858AA3
:104728002EF87429076E47004DA7C27DC22C27B505
:10473800BFC7CDF829F41A6AEDBAB0DF81A3AFDF9D
:1047480050DCD6F1ED7885113B4FEB438C8B99000B
:10475800D1AD54BF5D2751B04DA673CFC69B7CFD2C
:1047680080F5939A71DA422A795B5618A90C32BD02
:104778002D2A061B6322DF00E7D918E983E0355CA0
:1047880054DDC642365B92C9873FF2A21E2B947B4A
:1047980014BA9E2ADADDCFC372C11D66B9F64C0081
:1047A80024E2BF3C91A60E2D1822E2B02150BDCACA
:1047B800813325492FD831F5AB61C4A1C860855133
:1047C800A99A78DCE10B99007D21E37E02A0B3D59C
:1047D8004943516472D57DA427B7BCE3A6517FBA7B
:1047E8009282BE3650EFA0C5E6324D8A1C95C400B1
:1047F80043143F1655F318E96B98862F40B0C1FC57
:10480800210FD7AFEE4032EACFEB7045D951F40D06
:1048180019ED1DCC7B795400F4164281E287A795E7
:10482800B2B8A2A2BF39ADC4EF36899184959B4234
:10483800D2F66C295E4918B96B11C8E5A2F00000E0
:104848000FAAFF434351590DDA0238D45747C0ED38
:10485800FC6674C7DE4FB5466BFCBB5366A9701B7C
:10486800330348F0AEF87E00856F207FB385F9D614
:104878005C6A1FECEB8FD959CC824FE5A223B40EAA
:10488800822E46099A0D7A5E7FC4B7A52F6D660001
:10489800FDCA55805CE2308CB9312412E4F197E40A
:1048A8006697113695B1F43FE419648B48BDAB5651
:1048B8009438F939E3BC0F00BDC0DA8E3870B709F7
:1048C80043EB5FD95CD519C23F802B05A0CA548C35
:1048D80026DFD85CA4114B45E9EC14B2A002BC0059
:1048E8004168D36012D1FDB2B95F4874766020D7B1
:1048F8000482B85DEAF58C6B87917C6622B3A08E42
:104908006D4A16BC943A130094D3FE6913019210B1
:104918004E44C9C58E186E39A0975B7DDFF2F6A0AC
:10492800E644CD372E44B0B65C817434841242001C
:1049380038896BB624A6F6C48F5C6FE0D21D83FE5F
:10494800CA9D6B774502E70713C11E2B8CF89B1C89
:10495800DB41A0024A261D00E23EB3DBD5EB192B52
:1049680069828DEA4D6349896AF3DDA27089A52EB3
:1049780066E2C4952AE2BDB937077C4873A3D5001F
:1049880040329AF3B6912DD392B65B584CAB9060F7
:10499800FBFAC880C31CE3C41C6C8622FBABC5941D
:1049A8005E3E7BC5F68A2E00E4B49B1438FCD53BEA
:1049B8000AC813376981A10E8C77E4B00B7D3224C5
:1049C800BB3F4B2A600007D01FAB64E48328A700D5
:1049D80010BBE3142A1EAEB555E000243CCD970564
:1049E800DB8CEAADEA75777FBBC455960A88E0533D
:1049F8005307DB9B0FB86200B721C00E1D9B79AB34
:104A080013462AAC0EF9C0AEFF4FAA267D7361EF9C
:104A1800E58380570F0E2BC2BAFDCD575F14C9002E
:104A2800BCC15E525196B6FC13F626A0525561AA37
:104A3800EE60BF2D9C2E9C2848498C82B810AE1C75
:104A4800FC255724B6C5CA00845AB521431A6FD02D
:104A5800F0FBE0D2E48C95C18AEF6469BEB4E5EF5F
:104A6800C491CF6B5D6BBE0A04723FE2E55D9100B5
:104A780048D337D3E1C86D6FFED63DDA278BB5A092
:104A8800B2ED5254ED45CF2D7F8E996BEBC6A53311
:104A980091CA26626E5157002D8859698DA91C4804
:104AA80049AFAC06618D8078447B932938BEE039E4
:104AB800402E686C20308685C78DB380EC92DA0072
:104AC80060F17CC8D61EA8F90EE8FDC33CE0D714F7
:104AD8005CF636572D760B51D1CCD52A55974DD744
:104AE80017D2E9258F9D3E0021DA30C46AF37B2571
:104AF800FB3213C36138EBB9691A3F19B3EA98F36B
:104B0800EF5D40F826D33217633D366E9541580065
:104B1800196C89C3042E1F9D791E306EEC1A12F190
:104B2800115DE17FFEAA6293D0C6BE9EDF1995583B
:104B3800E8062C46C85C3E002607590BCD482C24B5
:104B4800599D0E2156013C6064C997EFE5799B5E3B
:104B58006A7224BEFCF963AA337A67BA2F925800A6
:104B6800B11B7EC0A7E01118F68D133046E1AA6C80
:104B7800C55772F7C50AB36E06D80825F7833C4AAD
:104B8800ACFDE7659F39BA00F6AC5B87BEC90390F8
:104B9800712C0A14DDBC4BE5929B0F43A1C244A6BD
:104BA80082E97152AF93622DAB8C993324DB4200BA
:104BB800BF7894453A50971FEE3EF4C1EF4398D71B
:104BC80064D996A84C90E7989E7854F1A5EA61C0FC
:104BD80034E85786C09E74003E8AB19090E565B06F
:104BE8007722BEB226BD9B7707B7CB6754588DAAEC
:104BF800EF754C4E8C5FF02006D6AB9508FD310062
:104C0800FC7D6F11F02462E5B772D0EFD84115D65C
:104C1800EE918411EC13E8C6BED8B93BAD7C4311C4
:104C28005D289AB2C5E11100F36C40151FEC1C1FFA
:104C38008B6B4841B8183A59267BE54779B5848586
:104C4800B1A303F0EBF24BA1AAEF9B260213890054
:104C5800B7DE71CB1E3E82EF876A8FF24A1DA3032F
:104C68003A2EC5928E83D0C8B5ADA809AAEE3DD319
:104C7800973E7EE74E5C7200CCEA8EE1D25F7F6B96
:104C8800FA5EE2F82B7DB1DD95231339CBD23C1CBB
:104C9800FAA1EB21F66A9C908D9B285634B32D001F
:104CA80007B153CA459DFD0E087947ED37ED2A0433
:104CB80071AC14C528ADEEBB135056A943BFE490A0
:104CC8001CFC9FD26A1D5400963221F7035AC65A1B
:104CD8002F9D7C068419A7C72FA9B4204561498B4D
:104CE800E9E5F49C3870372E4D81A57977936700F4
:104CF800FF7ADE6A0933FDFB31AA2379E700E58DE7
:104D080088C609B1A1281F26D57D7AF95977A16EE1
:104D1800E2549376D7722000131E4D50432B6E1326
:104D2800C036F8AAED811761CA9128170848F4F32C
:104D38009EDE2A88FC6B650A951ADF7E42D55600EE
:104D4800F77FCF63302360CE2803A6BE2B42B3CBB8
:104D58009FEB627DE1A3536AB3101C213FDB2BDC80
:104D68006DD4A7CB64277800286324F3E731B51105
:104D7800D44734794775DEAFC9EB00509B75AA85D7
:104D880067F54C0A6F429D5184050C7BCE78B900BB
:104D980031CD61696436FCE122E2802DB61E4933CB
:104DA800E6FADEAA08395365CCD2D31551855844A2
:104DB8000886345088C59200E94CFF11C5538C21F0
:104DC800D23C46E2CB105A36EA44A979EF52C006E3
:104DD800F22A1669AA9201E3A160EA2398408700A3
:104DE8006C4025145134B521A5F07CFB4178E71CB3
:104DF800C0251530128BF885A0E0EC8AC40C3F144E
:104E0800FD33B583CB396E00D62CA9EDA53D06AB95
:104E1800157F1EE4AEEF73EDC4BB05C2061282C156
:104E2800497326539B3AAC07A937F5A43CA623003F
:104E38008180DB6A7EEB3CD92C5068B298B4A926F5
:104E480070003A7B3DED4F2A2ADBFA00FB50EB1D40
:104E5800C2CEF5BD94A955006C4E58D74BFC994667
:104E6800B7BFCF047A0B5757B2425C2620433BB5F5
:104E7800B37EDB5510617F232E90FC73E3D4D00002
:104E8800220BDBB7CFB4258C3E99F3D6FD691DE81C
:104E98008F1DDB86DDF6B77A26101C306C68E1A51D
:104EA80007C5B1DB3BABF70029CE8384D18629D275
:104EB800C07430EBDC1D24C330D019548D8E5C31A6
:104EC80002C8FF718334075E70D9A6AF11C8770096
:104ED800EA62AC882AB6FE4225B214A99F00B186C0
:104EE80038EE241E778274F1E0B65A1362B64ED5B6
:104EF800C0F73B91150EB900CB75242266E3E77E17
:104F0800AAA06E4735D09F2DC411D77AF12A6B1D00
:104F1800AB1266EDFF78ADD546D4140CD8CB2C0077
:104F2800924D5AD9F46D347CACA501DD20047D4244
:104F3800557D59E3DA976B3DBEF215363C31D648BC
:104F480001FC84B1DC069E001C66B3A0DB26E67972
:104F5800BD4B970BA9250D6D7E8AB8D88229A27EF4
:104F68003263C011471DA5A9C279A783DDBB2D00F7
:104F7800D9D3A8824953CB22DF499DEBCAC5C39E2A
:104F8800026F2AEFE302FCB84EF9E01DC3DE2BA541
:104F98000D28BC914FB19600161197876B20659D1F
:104FA800F13206DAE8A9B21425AEEA8DACADB0A9A3
:104FB800A66543196D92B80A122B78954914FF001B
:104FC800451662270E0D63FCF04286C0A289DA8B73
:104FD8008F0A1CB877CC19633218B350BDF1A5F30A
:104FE800F29553A7C5B4A100DAF05E27279414FE02
:104FF80071AE5603430D679FE3BA2CA8A801030BB3
:1050080047C5F236151EBF7D96BF20ABFFABA0008B
:10501800585EE474FF164C863804303B85F15DFE1B
:10502800A8EB07E1E4F8BB2D314D1AEF5A66E1B859
:105038007AC2743F80F52100F6FED38C7E857C19F8
:10504800AAA6450E6E341DCEBDBF08A737AE948400
:10505800EF57180BCA81E8981C8B022C75B2110007
:10506800D232FEEA80E5FBF6C35028F2D379B62A9D
:10507800D1A4A39DC665449D8157A2160BD278D1B1
:1050880032ECF56472B688007CE31FFA1AF4CA5051
:10509800816B23DA8ED5B052E81B2EEA6E66A8BA69
:1050A800BA39A951C9DC6243A21546E8440A13007B
:1050B800B2391C9301CF68089212DE4DD74AB69ECA
:1050C8002DE60A7C66AC2C264CD5D1DE502B0D0E75
:1050D800D0E8214737E54B004B8C9D953924027C5D
:1050E8003CD5BE2EB5C8017628A9E9D05FBF025AC3
:1050F800769CD2C59E06424732E50383A664220009
:10510800C2E4DA0E228CF01F1DC34D239A11E7600A
:1051180087FB2351D045A319E6A1B51A4DAB417AB7
:1051280080C31A5A5F11BB001D4B9852F841E5D451
:10513800B88511D3E783DD781F06B349355426189F
:10514800790F53F938C80ADD9D6010EF64FFF2004B
:105158005A72482A75E2F5BBF778D98A4CD6F59881
:10516800B38052ED64763C5B1CBB25877806DCEF88
:105178002C0171BAAF9F480041AC8994491C396B26
:10518800634099A2448A2AE1C52B1E2A5B194672FC
:105198002817446C7E2BA0BBFD571C99080F0F00E5
:1051A800CB782B1B5EDA2931F5321E74CEF851D23A
:1051B80077E005A85B0EFBC9E4A0D3DD5DEAB6A0E5
:1051C8006B7C217A6201BA001F4AA056D4C8981A8B
:1051D800B592EB25B38C847AD7D0783F2A7AF23C03
:1051E800ED2014421AD839D9BA9EB03BA7BD510058
:1051F80000211DDDD09A704ABB8C90CE078A74F4CA
:10520800EB66F670FBF7494A81632250D2185E2B91
:1052180005555D09295CE900E4186F1ADEDC358361
:10522800310319B335D5220E4EB8D76109FAB95CE6
:10523800570828EE89A4BA137FF062364B66BF0080
:10524800B59C3FA6568363E8116F48BAF1CE2DDFAF
:10525800ECA7B9719416F951A0B82E6AF8D659423C
:10526800E11B2B90E75425002DA244B990A2174DBD
:10527800D9D88160378E613A08E6E97E90EF4327F6
:10528800DE7CBB198AD149833025871D5150BF0068
:1052980007F1886833B490FCC3553EEEA9D5ECAA53
:1052A800F048243A1F52DFF35847F4C7593DC21D4E
:1052B80029550B49D1F78100AD7356CFC333EE9012
:1052C8009AD61A3F84F3E152C7EBF6CA8658D9F04A
:1052D8000C2412F8D13B8C71B62AB0CC43988600C6
:1052E800F00DC80A6D594854136F0D5FC937668EA3
:1052F800C9A936DDBF069AEB5B6E59C4836696185A
:105308001E380550105B49009879AD23245854EC99
:105318007877AB509886271166B098858CF738A7B0
:1053280038945880B6CD0231A1FF0CB34C0E7800EA
:1053380034EF01A615F1A1C692276454B9FC4E5B5F
:1053480084DA58987603F0D03C83576B3EB91C0634
:10535800A0584FB94AA5EF000A7E1C46656D535107
:105368006B3488243CBB39DA35EE9E5CC3EF5FDBD7
:10537800758B6CFE9C23331957B23D4829C9F80038
:10538800FBF42CC44B38108452317FA5167A318B2C
:10539800295AE0354E2C58079BB54BED3AA9283EC3
:1053A800D37CBE192EC4E800E6B8620E6DD0345B1B
:1053B800309233F605D88471FCE6A626B585E57CDF
:1053C800FB4E46EAA61E78D80424C58C0743A600DF
:1053D8002C2733C79E2053E3D3B9EE195AE32BEF9A
:1053E800033D519C0E0BC0426312DC8B2EBDA627D9
:1053F8003B84FF9DA00F0C00E852FB05BF79615864
:105408001003E161DEF138CA951D6AF8D709BB8F30
:105418009B202B81DCFA5109D491B16C0F12B70093
:1054280088D98DEFFFC968D95AAC1193D69079B94C
:10543800868E8C0F1C0FA2862F33B6C982D0C2DC91
:105448004FF17D3FA0190B00347829104DBFB91FCB
:10545800434F1CD4B2FE32202594BD02BE2B5EF110
:1054680072D3A7006BCAB367E04E939CCCD97C007B
:105478007A6C579F0F0395C96B9023137CA7230F52
:10548800DEDBE16A558DE32BF840D103B595B5AB6A
:10549800CCADFAA3A103BE00E031041FEFDE7B32DE
:1054A800CE249E86110127F0F83314A2A1FE82BCF7
:1054B8004C221E097A0FBDE1C54905500C862A0009
:1054C800CF78A07E071183DDBA60D6024E91109A7C
:1054D800216067F5710105066437CCA7BC641252D8
:1054E800B95886950566960060C7A1A6405B552DFC
:1054F800E997B4F6F2A1DA096DCC2FDBDA4B6A131F
:1055080025314EFC9B42FB7DC5D9B6B5FB1F220059
:10551800CFD143C8DA0C5404D91242A3F5D372A0F0
:105528009E813E822BC97058A0F5C9134558FF8E3D
:1055380019B5AEE15A242400AF90D7FC1F59821444
:10554800EC351C206286FBC1AC85B10445A83470DB
:10555800D6A6A6119903904BA8A2B02E4A27CB0035
:10556800C3DEFF19AA8F1DAE72A9D022CF30801AD0
:10557800A3427F8D4B7DF49BED63B7B26730C5B80E
:10558800F4EC453749E30100AEAEBE4FCD1819B073
:10559800C80F93837370024D6795854E751C06BEC0
:1055A800EED8032F9D6D72F2568561520B2ECD00F9
:1055B80088C882308D40DD7C20BF91C3DE75596379
:1055C8000A1A53CFFA0FE5AAA11B39D88445A7C6F2
:1055D800B00EC72156AECE000B80C95A4D2EB671FB
:1055E8008EB5323E8AD72A8E6348ACF4BB656C749C
:1055F800C68DCC6F51DDF86F1A6AA40BF064B30046
:105608006D76F1008BF4506523FB643DD0C120E733
:10561800FEFF5A15A961B81605C2CD53BFBE424751
:105628002A54DBBF923DFB008D2E5F7881EAC8BD0E
:10563800B16286B617D2E56F67893CF97960EB4AA3
:10564800059193597959E792D8662E421FEAFA00D4
:105658003AD7D1AE05958410D723A25086C5ABE0C2
:105668009B8B4876E47F6934CF58D0F7975B0ABEA6
:105678004896C00B5AD9EF008481752C2B33E181F1
:105688009902F88C8DA1BDD25B6582FB0E7E4D5EC2
:10569800105ABA8C77F9C73B55A82F8539D2E10043
:1056A80063334ACBCF98163D743A9EFB169CC87458
:1056B800E50D3A13B3E915C7BBD9A10C1C7A44BD53
:1056C8008BBFAF62BF99A000AAD45630EBF283DC3F
:1056D800C1AEF121483A7F574D022CC73476DB81A1
:1056E8002D61806410D6879524E200259DC8EC00C2
:1056F800D86F555D60FB5F8FE56D40BBA0D1E41AA4
:10570800B6243002869AF0107CA040AD4B630C9C06
:10571800E04D51444B578B00EC6597AE4DE788261A
:10572800A30CF4EA01DE181F29EE1C873B2FE700C3
:10573800F2D5340468413CF82593880E6681A500AB
:10574800AD25E15F5AE6DAA12B8FB4366AEA54AF89
:10575800CC6E7DBCFA6A116D1F89FC44EFCDEF1742
:10576800A29B09DF7CF67900222815072AEAB78769
:10577800431DCD01A53A9309A53146B2BF69F7EE9D
:105788005106D78431C6D25E6C166F74F9756A00FB
:10579800768FD69FA93DEDE05EB647FA4CBF7D886F
:1057A80042F78D52679FCE4AB48C256633BF314786
:1057B800DE5FF3C4C4D0BE0060D8AA12BCD842FED3
:1057C800019D4AD660A58010EBD4B80D5124EEF7A0
:1057D80031FB64C626AFE9D4C2B89D3558323D00C6
:1057E800D377C07940CF6A956016CD03999A760E23
:1057F800CC23A51015D9FADE7B00EE7D1F3C46317F
:10580800CF49511E46A2BD00DE1B38A4135BA3FA84
:1058180062CB3F8D52388188DB22AA916DE9E01B6B
:1058280000EB66200CC7684CA1336084BAD87800B6
:105838005435DFC4891410FFCFAC3E5D0B29C6E098
:10584800E2512CCB1EB108A1F64C3D5AE689D5276A
:10585800AE9397D8A4AFBA00E8B1514DB92C4F2BED
:10586800328C8A18B5DEC21028A59EC9E6235E08C8
:105878001BF3B8C2C58B182E9250ED334C10D500CF
:105888007AD719262AA2E50C01C75C0BE01E3AA2BA
:1058980066C78B6D01ECDA3CD15F8682DA35F7C3D7
:1058A800450D586D5B2982009CFDED884880952345
:1058B80095549773B1A133F0A2F8CAC555ABE684E5
:1058C800F9AB3B5A25FB79B0D0DF5512A260B7007F
:1058D800542C82007834CA027C4973070311BD0E28
:1058E80042736CDF175F597BBFE9836F60149CD0EC
:1058F8007FBC04F157E77B0037F8A5DEF41D386B51
:10590800796D3FC42EE1A66A4BCA0A18DBC06D9BAD
:1059180099C35FB23D9CF3C1B02EADDBE6C5210053
:10592800830134BAF98E3DFE396401DAC4C06B08CC
:105938009C2D10D29446957C631F3A499A2583770B
:10594800753EB245D7023E00D7B56233F35277852C
:1059580063FA9423897F7D6659EEAD6883D23FAAA6
:1059680048475EB291327777CF80FDEECB99D2006F
:105978009A09EC22793F10F3692D9F533FEAC191B0
:1059880015CB131B996911EE22957B0EAF6C3C4227
:10599800D99C7B2B978EFC00A3A82DDADEEE7BD357
:1059A8003ACE48E04AE6AFF4CF18CCC32D7EB8B261
:1059B800102FEEE96828709DD3C0C8FA21AC5B00AF
:1059C8000377B197E861DA5932C5147301ECC09ACC
:1059D800F3A62468E0CFD0279815315FBB73A921BF
:1059E8002D1500BFB4100D00A2C6071D619DFDBD99
:1059F800677F9AA707F11370FB970E731B3A13B9C9
:105A080062CFEEF17F62E3A19D857A46B0AB990043
:105A180065C92F949974C9493111FC1E295B5892A4
:105A2800041C7DE2B0D3A987FB52F246C11DAAE04F
:105A38008A370074C3F91B00DFB3B2420E4DF2334C
:105A48005696115183BC1F38C4157878B7DAA96EF9
:105A5800FAAB1942F34C7C6FBCD905849B50A50066
:105A6800666D6137E03C1E88F839AA276B57B45E2B
:105A7800361F90AC94F11F1A8414361039A23E9543
:105A88007F728CBDDFF9BB00868EF28AB8E3C9D776
:105A9800B423B046BA6CD5E4CFF9C9695E66A00AEA
:105AA800D9669CA133018A703711708D7A4BF10049
:105AB8007614B9D503F889EDFFC6F91099BDD75406
:105AC800F53681FD0A44E5C4C0C0A2AF32DFC03A52
